:020000040800F2
:10000000000005201D090108F1070008F707000896
:10001000FD070008030800080908000800000000A8
:100020000000000000000000000000000F080008B1
:100030001D080008000000002B080008390800080F
:100040006D0901086D0901086D0901086D090108B4
:100050006D0901086D0901086D0901086D090108A4
:100060006D0901086D0901086D0901086D09010894
:100070006D0901086D0901086D0901086D09010884
:100080006D0901086D0901086D0901086D09010874
:100090006D0901086D0901086D0901086D09010864
:1000A0006D0901086D0901086D0901086D09010854
:1000B0006D0901086D0901086D0901086D09010844
:1000C0006D0901086D0901086D0901086D09010834
:1000D0006D0901086D0901086D0901086D09010824
:1000E0006D0901086D0901086D0901086D09010814
:1000F0006D0901086D0901086D0901086D09010804
:100100006D0901086D0901086D0901086D090108F3
:100110006D0901086D0901086D0901086D090108E3
:100120006D0901086D0901086D0901086D090108D3
:100130006D0901086D0901086D0901086D090108C3
:100140006D0901086D0901086D0901086D090108B3
:100150006D0901086D0901086D0901086D090108A3
:100160006D0901086D0901086D0901086D09010893
:100170006D0901086D0901086D0901086D09010883
:100180006D0901086D0901086D0901086D09010873
:100190006D0901086D0901086D0901086D09010863
:1001A0006D0901086D0901086D0901086D09010853
:1001B0006D0901086D0901086D0901086D09010843
:0801C0006D0901086D09010839
:1001D00010B5054C237833B9044B13B10448AFF381
:1001E00000800123237010BD80000020000000006B
:1001F000B018010808B5034B1BB103490348AFF31E
:10020000008008BD0000000084000020B018010834
:1002100010F8012B11F8013B012A28BF9A42F7D0B0
:10022000D01A7047034613F8012B002AFBD1181A85
:1002300001387047000000000000000000000000CE
:1002400001F0FF01102A2BDB10F0070F08D010F887
:10025000013B013A8B422DD010F0070F42B3F6D18B
:10026000F0B441EA012141EA014122F007047FF0A4
:1002700000070023F0E80256083C85EA010586EAFB
:10028000010685FA47F5A3FA87F586FA47F6A5FA37
:1002900087F68EB9EED1F0BC01F0FF0102F0070243
:1002A00032B110F8013B013A83EA010313B1F8D1EE
:1002B0000020704701387047002D06BF35460338CF
:1002C000073815F0010F07D1013015F4807F02BF08
:1002D000013015F4C03F0130F0BC0138704700BF59
:1002E00053B94AB9002908BF00281CBF4FF0FF319D
:1002F0004FF0FF3000F07AB9ADF1080C6DE904CE93
:1003000000F006F8DDF804E0DDE9022304B07047F0
:100310002DE9F0478C460D460446089E002B51D12E
:100320008A4217466DD9B2FA82FEBEF1000F0BD099
:10033000CEF1200C01FA0EF520FA0CFC02FA0EF7B1
:100340004CEA050C00FA0EF44FEA174A250CBCFBE8
:10035000FAF81FFA87F90AFB18CC45EA0C4508FBA6
:1003600009F3AB420AD9ED1908F1FF3280F023817D
:10037000AB4240F22081A8F102083D44ED1AA4B23C
:10038000B5FBFAF00AFB105544EA054400FB09F9F5
:10039000A14509D9E41900F1FF3380F00A81A14594
:1003A00040F2078102383C44A4EB090440EA0840CB
:1003B0000021002E61D024FA0EF400233460736013
:1003C000BDE8F0878B4207D9002E54D0002186E883
:1003D00021000846BDE8F087B3FA83F1002940F018
:1003E0008E80AB4202D3824200F2FA80841A65EB1F
:1003F00003050120AC46002E3FD086E81010BDE872
:10040000F08712B90127B7FBF2F7B7FA87FEBEF102
:10041000000F34D1EB1B3A0C1FFA87FC0121B3FB10
:10042000F2F8250C02FB183345EA03450CFB08F3F0
:10043000AB4207D9ED1908F1FF3002D2AB4200F20E
:10044000D1808046ED1AA3B2B5FBF2F002FB105545
:1004500043EA05440CFB00FCA44507D9E41900F16C
:10046000FF3302D2A44500F2B8801846A4EB0C0476
:1004700040EA08409DE731463046BDE8F087CEF1BE
:10048000200405FA0EF307FA0EF720FA04F83A0CE6
:1004900025FA04F448EA0308B4FBF2F14FEA1845E0
:1004A00002FB11441FFA87FC45EA044501FB0CF3EB
:1004B000AB4200FA0EF409D9ED1901F1FF3080F0DA
:1004C0008A80AB4240F2878002393D44EB1A1FFA22
:1004D00088F5B3FBF2F002FB103345EA034500FB5D
:1004E0000CF3AB4207D9ED1900F1FF386FD2AB42E4
:1004F0006DD902383D44EB1A40EA01418FE7C1F162
:10050000200722FA07F88B4005FA01F448EA0303B2
:1005100020FA07FE4FEA134CFD404EEA040EB5FBED
:10052000FCF94FEA1E440CFB19551FFA83F844EA04
:10053000054509FB08F4AC4202FA01F200FA01FA9F
:1005400008D9ED1809F1FF3043D2AC4241D9A9F1E5
:1005500002091D442D1B1FFA8EFEB5FBFCF00CFB9F
:1005600010554EEA054400FB08F8A04507D9E418E9
:1005700000F1FF3529D2A04527D902381C4440EAB2
:100580000940A4EB0804A0FB02894C45C6464D4631
:1005900015D312D056B1BAEB0E0364EB050404FA7E
:1005A00007F7CB401F43CC40376074600021BDE8A3
:1005B000F0871846F8E69046E0E6C245EAD2B8EB86
:1005C000020E69EB03050138E4E72846D7E7404609
:1005D00091E78146BEE7014678E702383C4445E7AB
:1005E000084608E7A8F102083D442BE7704700BF22
:1005F00080B588B000AF07F10C0300221A605A6082
:100600009A60DA601A61254A244B1B6B43F004039D
:100610001363224B1B6B03F00403BB60BB681F4AD0
:100620001E4B1B6B43F0010313631C4B1B6B03F04E
:1006300001037B607B68194A184B1B6B43F0020374
:100640001363164B1B6B03F002033B603B680022F5
:100650004FF48141124801F0B3FD4FF40053FB60A9
:1006600000233B6100237B6107F10C0319460D4811
:1006700001F0FCFB4FF48143FB6001233B6100234D
:100680007B610023BB6107F10C031946044801F0AC
:10069000EDFB00BF2037BD4680BD00BF00380240E3
:1006A000000402400008024080B500AF00F078F975
:1006B00000F00AF8FFF79CFF02F03EFA03F0F6FBA9
:1006C00002F07EFAFCE7000080B594B000AF07F1BD
:1006D000200330220021184610F088F907F10C039E
:1006E00000221A605A609A60DA601A612A4A2A4B1C
:1006F0001B6C43F080531364274B1B6C03F0805337
:10070000BB60BB68254A254B1B6843F4404313601C
:10071000224B1B6803F440437B607B6802233B62EF
:100720000123FB6210233B630223BB630023FB63B3
:1007300008233B64D8237B640223BB640223FB644D
:1007400007F12003184601F0A5FD0346002B01D058
:1007500000F026F801F04EFD0346002B01D000F01A
:100760001FF80F23FB6002233B6100237B614FF4E2
:10077000A053BB614FF48053FB6107F10C030721C9
:10078000184602F02BF80346002B01D000F008F8C1
:1007900000BF5037BD4680BD0038024000700040A9
:1007A00080B400AF72B6FEE780B483B000AF0F4AEA
:1007B0000E4B1B6C43F0805313640C4B1B6C03F00B
:1007C00080537B607B68094A084B5B6C43F4804331
:1007D0005364064B5B6C03F480433B603B6800BF93
:1007E0000C37BD465DF8047B704700BF00380240FF
:1007F00080B400AFFEE780B400AFFEE780B400AF86
:10080000FEE780B400AFFEE780B400AFFEE780B43F
:1008100000AF00BFBD465DF8047B704780B400AFF9
:1008200000BFBD465DF8047B704780B400AF00BFD9
:10083000BD465DF8047B704780B500AF00F0EEF870
:1008400000BF80BD90B587B000AFF860B9607A6036
:1008500000237B610AE0BC68631CBB60AFF30080CF
:100860000346DBB223707B6901337B617A697B6865
:100870009A42F0DB7B6818461C37BD4690BD80B5B8
:1008800086B000AFF860B9607A6000237B6109E050
:10089000BB685A1CBA601B781846AFF300807B69AE
:1008A00001337B617A697B689A42F1DB7B68184689
:1008B0001837BD4680BD000080B485B000AF7860B9
:1008C000114B1B68002B02D10F4B104A1A600E4BC4
:1008D0001B68FB600C4B1A687B6813446A469342A2
:1008E00005D90B4B0C221A604FF0FF3306E0064B84
:1008F0001A687B681344044A1360FB68184614376F
:10090000BD465DF8047B70479C000020406D0020D0
:100910003C6D002080B483B000AF78604FF0FF33AF
:1009200018460C37BD465DF8047B704780B483B031
:1009300000AF786039603B684FF400525A60002382
:1009400018460C37BD465DF8047B704780B483B011
:1009500000AF7860012318460C37BD465DF8047B74
:10096000704780B485B000AFF860B9607A6000234A
:1009700018461437BD465DF8047B704780B400AF5D
:10098000064A064BD3F8883043F47003C2F8883027
:1009900000BFBD465DF8047B704700BF00ED00E07E
:1009A00080B500AF032000F02BF9002000F006F81E
:1009B000FFF7FAFE0023184680BD000080B582B024
:1009C00000AF7860124B1A68124B1B7819464FF42F
:1009D0007A73B3FBF1F3B2FBF3F3184600F037F987
:1009E0000346002B01D001230EE07B680F2B0AD8B1
:1009F000002279684FF0FF3000F00DF9064A7B685D
:100A00001360002300E0012318460837BD4680BD6F
:100A100000000020080000200400002080B400AF87
:100A2000064B1B781A46064B1B681344044A136096
:100A300000BFBD465DF8047B704700BF0800002082
:100A40006406002080B400AF034B1B681846BD4607
:100A50005DF8047B704700BF6406002080B584B059
:100A600000AF7860FFF7EEFFB8607B68FB60FB6863
:100A7000B3F1FF3F05D0094B1B781A46FB681344BE
:100A8000FB6000BFFFF7DEFF0246BB68D21AFB68BF
:100A90009A42F7D300BF1037BD4680BD0800002042
:100AA00080B485B000AF78607B6803F00703FB601B
:100AB0000B4BDB68BB60BA684FF6FF031340BB60AB
:100AC000FB681A02BB681A43064B1343BB60044A17
:100AD000BB68D36000BF1437BD465DF8047B704728
:100AE00000ED00E00000FA0580B400AF044BDB68C5
:100AF0001B0A03F007031846BD465DF8047B7047E8
:100B000000ED00E080B483B000AF03463960FB71B4
:100B100097F90730002B0ADB0D4997F907303A683F
:100B2000D2B21201D2B20B4483F800230AE0094981
:100B3000FB7903F00F03043B3A68D2B21201D2B240
:100B40000B441A7600BF0C37BD465DF8047B704736
:100B500000E100E000ED00E080B489B000AFF86093
:100B6000B9607A60FB6803F00703FB61FB69C3F1BE
:100B70000703042B28BF0423BB61FB690433062B46
:100B800002D9FB69033B00E000237B610122BB69C2
:100B900002FA03F35A1EBB681A407B699A4001218E
:100BA0007B6901FA03F3591E7B680B401343184617
:100BB0002437BD465DF8047B7047000080B582B0E5
:100BC00000AF78607B68013BB3F1807F01D30123E4
:100BD0000FE00A4A7B68013B53600F214FF0FF3062
:100BE000FFF790FF054B00229A60044B07221A6022
:100BF000002318460837BD4680BD00BF10E000E066
:100C000080B582B000AF78607868FFF749FF00BF19
:100C10000837BD4680BD80B586B000AF0346B960D9
:100C20007A60FB7300237B61FFF75EFF78617A686F
:100C3000B9687869FFF790FF024697F90F301146BF
:100C40001846FFF75FFF00BF1837BD4680BD80B56F
:100C500082B000AF78607868FFF7B0FF03461846AF
:100C60000837BD4680BD000080B588B000AF786011
:100C70000023FB610023FB60A94BBB6100237B6168
:100C800000233B617B68002B01D1012383E17B685A
:100C900093F84430DBB2002B06D17B68002283F846
:100CA0004520786801F098FF9E4A9E4B5B6C43F4A8
:100CB000804353649B4B5B6C03F48043BB60BB6815
:100CC000994A994B5B6823F4000353609649964B0D
:100CD0005A687B681B6A13434B607B681B687A68A1
:100CE000126802F58052126842F0010203F5805347
:100CF0001A60FFF7A7FE786111E0FFF7A3FE024636
:100D00007B69D31AB3F5FA7F09D97B68032283F88C
:100D100044207B68002283F8452003233BE17B6865
:100D20001B6803F580531B6803F00103002BE4D11B
:100D30007B681B681B69FB61FB6923F01C03FB617B
:100D400001F0EEFEB861BB69784A934208D9BB69ED
:100D5000774A934204D8FB6943F00803FB6127E01C
:100D6000BB69734A934208D9BB69724A934204D85B
:100D7000FB6943F00C03FB611AE0BB696D4A9342C7
:100D800003D9BB696C4A934211D9BB696A4A934241
:100D900008D9BB69694A934204D8FB6943F004034C
:100DA000FB6105E0FB6943F01003FB6100E000BF5D
:100DB0007B681B68FA691A614FF400420021786869
:100DC00000F09AFB0346002B0BD001233B613969ED
:100DD000786800F04DFD7B68012283F844200123F0
:100DE000D9E0FF20FFF73AFE7B685B68002B00F03C
:100DF000A780FFF727FE786107F10C031A4601214F
:100E0000786800F011FBFFF71DFE02467B69D31ADC
:100E100041F2883293420FD901233B6139697868E6
:100E200000F026FD7B68012283F844207B680022C5
:100E300083F845200323AEE0FB6803F00403002B96
:100E4000DAD04FF480520021786800F055FB034659
:100E5000002B0BD001233B613969786800F008FD55
:100E60007B68012283F84420012394E0FFF7EAFD28
:100E7000786107F10C031A460121786800F0D4FA72
:100E8000FFF7E0FD02467B69D31A41F288329342B4
:100E90000FD901233B613969786800F0E9FC7B6870
:100EA000012283F844207B68002283F84520032335
:100EB00071E0FB6803F02003002BDAD007F10C038C
:100EC0001A461F21786800F0AFFA0346002B0BD0BA
:100ED00001233B613969786800F0CAFC7B68012214
:100EE00083F84420012356E0FB6803F01003002B35
:100EF00004D07B684FF40062DA6002E07B68002275
:100F0000DA60FB6803F00403002B03D07B68002247
:100F10009A6037E07B684FF480429A6032E000BF0D
:100F2000008793030038024000380140FF2C310154
:100F3000BF0E1602FF869303FFE0F5057FD1F00890
:100F40007B68DB68DB089AB27B689B685B089BB2B6
:100F500013439BB21A460021786800F0CDFA03468D
:100F6000002B0BD001233B613969786800F080FCCD
:100F70007B68012283F8442001230CE040F6FF70D7
:100F8000FFF76CFD3969786800F072FC7B6801221C
:100F900083F84420002318462037BD4680BD00BF9B
:100FA00080B487B000AFF860B9607A603B6000231E
:100FB0007B61FB6893F84530012B01D1022352E09D
:100FC000FB68012283F84520FB68022283F8442055
:100FD000FB68BA68DA6200237B6130E07B695B0101
:100FE000BA6813443B613B694FF480121A607B6915
:100FF00040F2F45202FB03F37A6813441A463B6949
:101000009A60FB68DB69002B05D13B691B6843F4E0
:1010100040023B691A603B685A1E7B699A4208D9B4
:101020007B6901335B01BA6813441A463B69DA6095
:1010300002E0BA683B69DA607B6901337B617A69F7
:101040003B689A42CAD3FB681968BA6841F2100338
:101050000B441A60FB68012283F84420FB680022DD
:1010600083F84520002318461C37BD465DF8047BF5
:10107000704780B487B000AFF860B9607A603B60B9
:1010800000237B61FB6893F84530012B01D10223DB
:1010900056E0FB68012283F84520FB68022283F8B2
:1010A0004420FB68BA689A6200237B6134E07B6964
:1010B0005B01BA6813443B613B694FF000421A6020
:1010C0003B6944F2F4525A607B6940F2F45202FBED
:1010D00003F37A6813441A463B699A60FB689B697C
:1010E000012B05D13B695B6823F000423B695A60E4
:1010F0003B685A1E7B699A4208D97B6901335B01C0
:10110000BA6813441A463B69DA6002E0BA683B6980
:10111000DA607B6901337B617A693B689A42C6D3A6
:10112000FB681968BA6841F20C030B441A60FB684B
:10113000012283F84420FB68002283F84520002325
:1011400018461C37BD465DF8047B704780B487B0F5
:1011500000AF7860396000237B610023FB600023CF
:101160003B617B6893F84530012B01D10223CDE030
:101170007B68012283F845207B68022283F84420A3
:101180003B68002B09D17B68012283F844207B68EF
:10119000002283F845200123B8E07B68DB6A1B68E6
:1011A000002B09DA7B68122283F844207B68002236
:1011B00083F845200123A9E03B6840F2F4529342B2
:1011C00015D93B68544AA2FB03239B0A7B613A680A
:1011D000514BA3FB02139B0A40F2F45101FB03F3B2
:1011E000D31A002B05D07B6901337B6101E0012319
:1011F0007B617B69012B1CD17B68DB6A7A68D26AD0
:10120000126842F040521A607B68DB6A3A68C2F3A7
:101210000C025A607B68DB6A7A68D26A126842F014
:1012200000421A607B68DB6ADB681A467B68DA6218
:101230004BE000233B6144E07B68DB6A7A68D26A5A
:10124000126822F040521A603B69002B07D17B687C
:10125000DB6A7A68D26A126842F080521A607B6850
:10126000DB6A40F2F4525A607B695A1E3B699A422B
:1012700016D17B68DB6A7A68D26A126842F0005243
:101280001A607B69254A02FB03F23B68134403F2B0
:10129000F453FB607B68DB6AFA68C2F30C025A60A5
:1012A0007B68DB6A7A68D26A126842F000421A6090
:1012B0007B68DB6ADB681A467B68DA623B6901336C
:1012C0003B613A697B699A42B6D37B681A6841F2FE
:1012D000140313441B6803F00403002B0DD07B6838
:1012E0001A6841F21403134404221A607B681A68D6
:1012F00041F20403134400221A607B68012283F840
:1013000044207B68002283F84520002318461C37C0
:10131000BD465DF8047B70470BB002AC0CFAFFFFD2
:1013200080B485B000AF78600023FB607B6893F8E1
:101330004530012B01D1022370E07B68012283F844
:1013400045207B68022283F844207B689B6A1B68E7
:10135000002B5ADB7B689B6A1B6803F48073002BAD
:1013600030D07B689B6B5A1C7B689A637B689B6B55
:10137000012B03D17B689A6A7B681A637B689A6A3F
:101380007B685A637B689B6A1B681B0CC3F30D0365
:10139000043BFB607B68FA68DA637B681B6B9A68C6
:1013A0007B681A647B689B6ADB681A467B689A6272
:1013B0007B68012283F844207B68002283F8452063
:1013C00000232BE07B689B6A1B6803F40073002BEF
:1013D00010D07B689A6A7B681A637B6800225A6324
:1013E0007B6801229A637B689B6ADB681A467B688C
:1013F0009A620AE07B689B6B5A1C7B689A637B68E5
:101400009B6ADB681A467B689A627B68012283F8D4
:1014100044207B68002283F84520012318461437B6
:10142000BD465DF8047B704780B586B000AFF860BC
:101430000B467A607B8100237B6100233B61FB6864
:1014400093F84430DBB2822B01D1022350E0FB68D9
:10145000822283F84420FB681B681B697B617B69DF
:1014600003F01C037B61FB681B8ADB029BB27A6979
:1014700013437B617B899B0103F4F8637A6913430F
:101480007B617B6923F002037B617B6943F001038D
:101490007B61FB681B687A691A61FFF7D3FA3861D0
:1014A00015E0FFF7CFFA02463B69D31AB3F5803F48
:1014B00009D3FB68012283F84420FB68002283F8EB
:1014C0004520032314E0FB681B681B697B617B6973
:1014D00003F00103002BE4D1FB681B685B699BB23E
:1014E0001A467B681A60FB68012283F844200023B7
:1014F00018461837BD4680BD80B586B000AFF8608D
:101500000B467A607B8100237B6100233B61FB6893
:1015100093F84430DBB2422B01D102234EE0FB684A
:10152000422283F84420FB681B681B697B617B694E
:1015300003F01C037B61FB681B8ADB029BB27A69A8
:1015400013437B617B899B0103F4F8637A6913433E
:101550007B617B6943F002037B617B6943F001039C
:101560007B61FB681B687A6892B25A61FB681B68F2
:101570007A691A61FFF766FA386115E0FFF762FAD7
:1015800002463B69D31AB3F5803F09D3FB680122B9
:1015900083F84420FB68002283F8452003230DE0F4
:1015A000FB681B681B697B617B6903F00103002BEF
:1015B000E4D1FB68012283F8442000231846183741
:1015C000BD4680BD80B582B000AF78607B6893F87F
:1015D0004530012B01D102231FE07B68012283F8F3
:1015E00045207B68022283F84420786800F040FBA5
:1015F000786800F077FB786800F00EFC786800F0FF
:10160000ABFB786800F0D8FB7B68012283F84420AC
:101610007B68002283F84520002318460837BD4622
:1016200080BD80B582B000AF78607B6893F84530AC
:10163000012B01D102231FE07B68012283F84520A2
:101640007B68022283F84420786800F09DFB78686C
:1016500000F0CAFB786800F062FB786800F0DCFB01
:10166000786800F022FB7B68012283F844207B68C5
:10167000002283F84520002318460837BD4680BD68
:1016800080B584B000AF786039600023FB607B6870
:1016900093F84530012B01D10223E3E07B6801225E
:1016A00083F845207B68022283F844203B68002BA6
:1016B00000F0B0807B681B681B68FB60FA686B4BAE
:1016C0001340FB603B681A683B685B681A433B68E1
:1016D0009B681A433B68DB681A437B689B681A4324
:1016E0003B681B691A433B685B691A437B68DB688C
:1016F0001A433B689B691A433B68DB691A433B68A2
:101700001B6A1A433B685B6A1A433B689B6A134334
:10171000FA681343FB607B681B68FA681A607B6891
:101720001B681B68FB600120FFF798F97B681B684A
:10173000FA681A607B681B683A68D16A3A68126B6B
:1017400011433A68526B11433A68926B11433A68FD
:10175000D26B11433A68126C11433A68526C1143D0
:101760003A68926C0A435A607B681B685B68FB604E
:101770000120FFF773F97B681B68FA685A607B6881
:101780001B683A68D26C9A607B681B683A68126D75
:10179000DA607B681B689B69FB60FA684FF64173EF
:1017A0001340FB603B685B6D1A043B689B6D1A43FA
:1017B0003B68DB6D1A433B681B6E1A433B685B6EEC
:1017C0001A433B689B6E1343FA681343FB607B68C4
:1017D0001B68FA689A617B681B689B69FB60012043
:1017E000FFF73CF97B681B68FA689A617B681B68A5
:1017F0003A68D16E3A68126F0A43DA617B681B68F7
:10180000DB69FB600120FFF729F97B681B68FA6838
:10181000DA611EE07B681B681B68FB60FB6823F4D1
:101820009043FB607B689A687B68DB681343FA68C7
:101830001343FB607B681B68FA681A607B681B684F
:101840001B68FB600120FFF709F97B681B68FA68D9
:101850001A607B68012283F844207B68002283F8A9
:101860004520002318461037BD4680BD0F8120FF5C
:1018700080B5B0B000AF786039600023C7F8BC30E5
:101880003B68002B07D07B684FF40062DA607B680E
:101890004FF480429A600023BB640023FB64002362
:1018A0003B6500237B650023BB650023FB657B68EC
:1018B000DB69002B03D14FF480633B6601E000231A
:1018C0003B664FF400737B660023BB660023FB6618
:1018D00000233B6700237B670023BB674023FB6734
:1018E0000023C7F880300023C7F884300023C7F8EE
:1018F00088300023C7F88C300023C7F890300023CD
:10190000C7F894300023C7F898300023C7F89C30FC
:101910008023C7F8A0300023C7F8A4300023C7F8FD
:10192000A8300023C7F8AC300023C7F8B03000233C
:10193000C7F8B4300023C7F8B8307B681B681B6851
:10194000C7F8BC30D7F8BC20AA4B1340C7F8BC304E
:10195000BA6CFB6C1A433B6D1A437B6D1A437B6870
:101960009B681A43BB6D1A43FB6D1A437B68DB68A7
:101970001A433B6E1A437B6E1A43BB6E1A43FB6ECF
:101980001A433B6F1343D7F8BC201343C7F8BC304E
:101990007B681B68D7F8BC201A607B681B681B68D3
:1019A000C7F8BC300120FFF759F87B681B68D7F8EF
:1019B000BC201A607B681B68796FBA6F1143FA6F9D
:1019C0001143D7F880201143D7F884201143D7F86A
:1019D00088201143D7F88C201143D7F890200A4370
:1019E0005A607B681B685B68C7F8BC300120FFF752
:1019F00035F87B681B68D7F8BC205A607B681B6889
:101A0000D7F894209A607B681B68D7F89820DA6032
:101A10007B681B689B69C7F8BC30D7F8BC204FF6C1
:101A200041731340C7F8BC30D7F89C301A04D7F87C
:101A3000A0301A43D7F8A4301A43D7F8A8301A4375
:101A4000D7F8AC301A43D7F8B0301343D7F8BC20DE
:101A50001343C7F8BC307B681B68D7F8BC209A6179
:101A60007B681B689B69C7F8BC300120FEF7F6FF56
:101A70007B681B68D7F8BC209A617B681B68D7F825
:101A8000B410D7F8B8200A43DA617B681B68DB69B9
:101A9000C7F8BC300120FEF7E1FF7B681B68D7F870
:101AA000BC20DA610023BB604FF00073FB600023B1
:101AB0003B614FF400137B610023BB610023FB619A
:101AC00000233B6200237B620423BB624FF0007360
:101AD000FB624FF480333B634FF480037B634FF42E
:101AE0000053BB638023FB6300233B6400237B64C0
:101AF0007B681A6841F2180313441B68C7F8BC30AE
:101B0000D7F8BC203C4B1340C7F8BC30BA68FB6820
:101B10001A433B691A437B691A43BB691A43FB6941
:101B20001A433B6A1A437B6A1A43BB6A1343D7F8CA
:101B3000BC201343C7F8BC307B681A6841F2180315
:101B40001344D7F8BC201A607B681A6841F2180366
:101B500013441B68C7F8BC300120FEF77FFF7B6889
:101B60001A6841F218031344D7F8BC201A607B6846
:101B70001B68F96A3A6B11437A6B1143BA6B1143D4
:101B8000FA6B11433A6C920011437A6C0A4342F4A7
:101B9000000203F580531A607B681B6803F58053CD
:101BA0001B68C7F8BC300120FEF758FF7B681B6834
:101BB00003F58053D7F8BC201A607B689B69012B22
:101BC0000DD17B6819687B681A6841F21C031344C5
:101BD0001B680A4A1A4341F21C030B441A607B68D3
:101BE0005B691A460021786800F00AF800BFC03728
:101BF000BD4680BD0F8120FF233FDEF8400001007D
:101C000080B487B000AFF860B9607A607B68053354
:101C10001B781B027A680432127813437B61BA681E
:101C2000114B13441A467B6913607B6803331B789E
:101C30001A067B6802331B781B041A437B68013346
:101C40001B781B0213437A68127813437B61BA68CE
:101C5000064B13441A467B69136000BF1C37BD4610
:101C60005DF8047B704700BF408002404480024022
:101C700080B584B000AF78600023FB607B681B6890
:101C80007A681268126842F008021A607B681B6862
:101C90001B68FB600120FEF7E1FE7B681B68FA68A9
:101CA0001A6000BF1037BD4680BD80B584B000AF5C
:101CB00078600023FB607B681B687A681268126892
:101CC00022F008021A607B681B681B68FB60012019
:101CD000FEF7C4FE7B681B68FA681A6000BF103705
:101CE000BD4680BD80B584B000AF78600023FB6046
:101CF0007B681B687A681268126842F004021A60F6
:101D00007B681B681B68FB600120FEF7A7FE7B68F1
:101D10001B68FA681A6000BF1037BD4680BD80B5E9
:101D200084B000AF78600023FB607B681B687A6832
:101D30001268126822F004021A607B681B681B6834
:101D4000FB600120FEF78AFE7B681B68FA681A6058
:101D500000BF1037BD4680BD80B483B000AF78604F
:101D60007B6819687B681A6841F2180313441B6882
:101D700043F4005241F218030B441A6000BF0C37C1
:101D8000BD465DF8047B704780B483B000AF7860D7
:101D90007B6819687B681A6841F2180313441B6852
:101DA00023F4005241F218030B441A6000BF0C37B1
:101DB000BD465DF8047B704780B483B000AF7860A7
:101DC0007B6819687B681A6841F2180313441B6822
:101DD00043F0020241F218030B441A6000BF0C37B3
:101DE000BD465DF8047B704780B483B000AF786077
:101DF0007B6819687B681A6841F2180313441B68F2
:101E000023F0020241F218030B441A6000BF0C37A2
:101E1000BD465DF8047B704780B584B000AF786044
:101E20000023FB607B6819687B681A6841F218031D
:101E300013441B6843F4801241F218030B441A60E8
:101E40007B681A6841F2180313441B68FB60012089
:101E5000FEF704FE7B681968FA6841F218030B4428
:101E60001A6000BF1037BD4680BD000080B489B045
:101E700000AF786039600023FB6100237B610023A1
:101E80003B610023BB610023FB6175E10122FB691B
:101E900002FA03F37B613B681A687B6913403B617C
:101EA0003A697B699A4240F064813B685B68012B28
:101EB0000BD03B685B68022B07D03B685B68112B3B
:101EC00003D03B685B68122B30D17B689B68BB6199
:101ED000FB695B00032202FA03F3DB43BA69134098
:101EE000BB613B68DA68FB695B0002FA03F3BA691D
:101EF0001343BB617B68BA699A607B685B68BB61AE
:101F00000122FB6902FA03F3DB43BA691340BB61A8
:101F10003B685B681B0903F00102FB6902FA03F3EB
:101F2000BA691343BB617B68BA695A607B68DB6836
:101F3000BB61FB695B00032202FA03F3DB43BA696E
:101F40001340BB613B689A68FB695B0002FA03F3CC
:101F5000BA691343BB617B68BA69DA603B685B6846
:101F6000022B03D03B685B68122B23D1FB69DA0894
:101F70007B68083253F82230BB61FB6903F007032A
:101F80009B000F2202FA03F3DB43BA691340BB61E3
:101F90003B681A69FB6903F007039B0002FA03F32D
:101FA000BA691343BB61FB69DA087B680832B96917
:101FB00043F822107B681B68BB61FB695B0003224E
:101FC00002FA03F3DB43BA691340BB613B685B6809
:101FD00003F00302FB695B0002FA03F3BA691343DF
:101FE000BB617B68BA691A603B685B6803F0805329
:101FF000002B00F0BE80654A644B5B6C43F4804369
:102000005364624B5B6C03F48043FB60FB68604A83
:10201000FB699B08023352F82330BB61FB6903F074
:1020200003039B000F2202FA03F3DB43BA69134058
:10203000BB617B68574A934237D07B68564A9342CC
:1020400031D07B68554A93422BD07B68544A9342E7
:1020500025D07B68534A93421FD07B68524A9342F3
:1020600019D07B68514A934213D07B68504A9342FF
:102070000DD07B684F4A934207D07B684E4A93420B
:1020800001D1092312E00A2310E008230EE0072300
:102090000CE006230AE0052308E0042306E00323FE
:1020A00004E0022302E0012300E00023FA6902F0C9
:1020B000030292009340BA691343BB613449FB6940
:1020C0009B080233BA6941F823203C4B1B68BB6173
:1020D0003B69DB43BA691340BB613B685B6803F44F
:1020E0008033002B03D0BA693B691343BB61334A89
:1020F000BB691360314B5B68BB613B69DB43BA6909
:102100001340BB613B685B6803F40033002B03D0D2
:10211000BA693B691343BB61284ABB695360274BCB
:102120009B68BB613B69DB43BA691340BB613B6899
:102130005B6803F48013002B03D0BA693B69134337
:10214000BB611E4ABB6993601C4BDB68BB613B698A
:10215000DB43BA691340BB613B685B6803F400135F
:10216000002B03D0BA693B691343BB61134ABB69B7
:10217000D360FB690133FB61FB690F2B7FF686AEF1
:1021800000BF2437BD465DF8047B7047003802402D
:1021900000380140000002400004024000080240F4
:1021A000000C0240001002400014024000180240DF
:1021B000001C02400020024000240240003C01407C
:1021C00080B483B000AF78600B467B8013467B7091
:1021D0007B78002B03D07A887B689A6103E07B8848
:1021E0001A047B689A6100BF0C37BD465DF8047B1A
:1021F0007047000080B582B000AF00237B60234AA7
:10220000224B1B6C43F080531364204B1B6C03F078
:1022100080533B603B681E4A1D4B1B6843F4803370
:102220001360FEF70FFC786009E0FEF70BFC024636
:102230007B68D31AB3F57A7F01D9032322E0144BCC
:102240005B6803F48033B3F5803FEED1104A104B46
:102250001B6843F400331360FEF7F4FB786009E079
:10226000FEF7F0FB02467B68D31AB3F57A7F01D9FB
:10227000032307E0064B5B6803F40033B3F5003F2C
:10228000EED1002318460837BD4680BD0038024015
:102290000070004080B586B000AF78600023FB7509
:1022A0007B68002B01D1012391E27B681B6803F05E
:1022B0000103002B00F08780964B9B6803F00C0312
:1022C000042B0CD0934B9B6803F00C03082B12D10A
:1022D000904B5B6803F48003B3F5800F0BD18D4BFB
:1022E0001B6803F40033002B6CD07B685B68002B09
:1022F00068D101236BE27B685B68B3F5803F06D150
:10230000844A844B1B6843F4803313602EE07B685F
:102310005B68002B0CD17F4A7E4B1B6823F4803313
:1023200013607C4A7B4B1B6823F4802313601DE001
:102330007B685B68B3F5A02F0CD1764A754B1B68A0
:1023400043F480231360734A724B1B6843F4803359
:1023500013600BE06F4A6F4B1B6823F480331360EC
:102360006C4A6C4B1B6823F4802313607B685B68AA
:10237000002B13D0FEF766FB386108E0FEF762FB26
:1023800002463B69D31A642B01D903231FE2614B38
:102390001B6803F40033002BF0D014E0FEF752FB6F
:1023A000386108E0FEF74EFB02463B69D31A642B06
:1023B00001D903230BE2574B1B6803F40033002BB6
:1023C000F0D100E000BF7B681B6803F00203002B24
:1023D00069D0504B9B6803F00C03002B0BD04D4B86
:1023E0009B6803F00C03082B1CD14A4B5B6803F479
:1023F0008003002B16D1474B1B6803F00203002B10
:1024000005D07B68DB68012B01D00123DFE1414966
:10241000404B1B6823F0F8027B681B69DB00134309
:102420000B6040E07B68DB68002B23D0394A394BD6
:102430001B6843F001031360FEF704FB386108E0FA
:10244000FEF700FB02463B69D31A022B01D9032396
:10245000BDE1304B1B6803F00203002BF0D02D4987
:102460002C4B1B6823F0F8027B681B69DB001343CD
:102470000B6018E0274A274B1B6823F00103136009
:10248000FEF7E0FA386108E0FEF7DCFA02463B6945
:10249000D31A022B01D9032399E11E4B1B6803F0C9
:1024A0000203002BF0D17B681B6803F00803002BAC
:1024B00038D07B685B69002B19D0164A154B5B6FCF
:1024C00043F001035367FEF7BDFA386108E0FEF7F9
:1024D000B9FA02463B69D31A022B01D9032376E1EC
:1024E0000C4B5B6F03F00203002BF0D01AE0094A9B
:1024F000084B5B6F23F001035367FEF7A3FA3861C3
:102500000AE0FEF79FFA02463B69D31A022B03D971
:1025100003235CE100380240914B5B6F03F0020340
:10252000002BEED17B681B6803F00403002B00F046
:10253000A4808B4B1B6C03F08053002B0DD1884A79
:10254000874B1B6C43F080531364854B1B6C03F06B
:102550008053BB60BB680123FB75824B1B6803F48F
:102560008073002B18D17F4A7E4B1B6843F4807325
:102570001360FEF767FA386108E0FEF763FA024677
:102580003B69D31A642B01D9032320E1754B1B68E7
:1025900003F48073002BF0D07B689B68012B06D17D
:1025A0006F4A6F4B1B6F43F0010313672DE07B688D
:1025B0009B68002B0CD16A4A694B1B6F23F0010307
:1025C0001367674A664B1B6F23F0040313671CE015
:1025D0007B689B68052B0CD1614A614B1B6F43F0F4
:1025E000040313675E4A5E4B1B6F43F001031367DE
:1025F0000BE05B4A5A4B1B6F23F001031367584AE9
:10260000574B1B6F23F0040313677B689B68002BF9
:1026100015D0FEF717FA38610AE0FEF713FA024602
:102620003B69D31A41F28832934201D90323CEE0A9
:102630004B4B1B6F03F00203002BEED014E0FEF7B0
:1026400001FA38610AE0FEF7FDF902463B69D31A48
:1026500041F28832934201D90323B8E0404B1B6F0B
:1026600003F00203002BEED1FB7D012B05D13C4A88
:102670003B4B1B6C23F0805313647B689B69002BDE
:1026800000F0A480364B9B6803F00C03082B6BD042
:102690007B689B69022B49D1314A314B1B6823F07F
:1026A00080731360FEF7CEF9386108E0FEF7CAF9CF
:1026B00002463B69D31A022B01D9032387E0284B3A
:1026C0001B6803F00073002BF0D125497B68DA69A1
:1026D0007B681B6A1A437B685B6A9B011A437B68B1
:1026E0009B6A5B08013B1B041A437B68DB6A1B0681
:1026F000134343F000534B60194A194B1B6843F0D6
:1027000080731360FEF79EF9386108E0FEF79AF9CE
:1027100002463B69D31A022B01D9032357E0104B21
:102720001B6803F00073002BF0D04FE00C4A0C4BF9
:102730001B6823F080731360FEF784F9386108E0AA
:10274000FEF780F902463B69D31A022B01D9032315
:102750003DE0034B1B6803F00073002BF0D135E024
:1027600000380240007000401B4B5B68FB607B68D8
:102770009B69012B28D0FB6803F480027B68DB692E
:102780009A4221D1FB6803F03F027B681B6A9A42A0
:102790001AD1FA6847F6C07313407A68526A9201F8
:1027A000934211D1FB6803F440327B689B6A5B085B
:1027B000013B1B049A4207D1FB6803F070627B68FF
:1027C000DB6A1B069A4201D0012300E00023184671
:1027D0001837BD4680BD00BF0038024080B584B0C8
:1027E00000AF786039600023FB607B68002B01D16B
:1027F0000123D0E06A4B1B6803F00F023B689A424A
:1028000010D26749664B1B6823F00F023B681343E5
:102810000B60634B1B6803F00F023B689A4201D0C8
:102820000123B8E07B681B6803F00203002B20D073
:102830007B681B6803F00403002B05D0594A594BF1
:102840009B6843F4E05393607B681B6803F00803C4
:10285000002B05D0534A534B9B6843F4604393606D
:102860005049504B9B6823F0F0027B689B681343F0
:102870008B607B681B6803F00103002B40D07B68F2
:102880005B68012B07D1474B1B6803F40033002B17
:1028900015D101237FE07B685B68022B07D1414B98
:1028A0001B6803F00073002B09D1012373E03D4B3B
:1028B0001B6803F00203002B01D101236BE03949AF
:1028C000384B9B6823F003027B685B6813438B6083
:1028D000FEF7B8F8F8600AE0FEF7B4F80246FB68C5
:1028E000D31A41F28832934201D9032353E02D4B8E
:1028F0009B6803F00C027B685B689B009A42EBD1FB
:10290000274B1B6803F00F023B689A4210D92449F9
:10291000234B1B6823F00F023B6813430B60204BD3
:102920001B6803F00F023B689A4201D0012332E09A
:102930007B681B6803F00403002B08D01949194B6E
:102940009B6823F4E0527B68DB6813438B607B68F1
:102950001B6803F00803002B09D01249114B9B6838
:1029600023F460427B681B69DB0013438B6000F03B
:1029700021F801460B4B9B681B0903F00F030A4A21
:10298000D35C21FA03F3094A1360094B1B6818460C
:10299000FEF714F8002318461037BD4680BD00BF6F
:1029A000003C024000380240684801080000002056
:1029B000040000202DE9F04F87B000AF0022FA603C
:1029C00000227A610022BA6000223A61514A92687C
:1029D00002F00C02042A07D0082A08D0002A40F08E
:1029E00090804D4B3B618FE04C4B3B618CE0494A02
:1029F000526802F03F02FA60464A526802F48002CE
:102A0000002A23D0434B5B689B094FF0000440F23F
:102A1000FF114FF0000203EA010304EA02043F4AF7
:102A200002FB04F1002202FB03F20A443B49A3FB30
:102A3000010153181946FB684FF000041A4623465B
:102A4000FDF74EFC03460C467B614CE0314A526870
:102A5000920911464FF0000240F2FF154FF00006B8
:102A600005EA010506EA0206294632464FEA421BFC
:102A70004BEAD16B4FEA411A51465A46AA46B34631
:102A800055465E464D1B62EB0606294632469401CA
:102A900044EA91648B015B1A64EB02044FEAC409B7
:102AA00049EA53794FEAC30843464C4655465E46C9
:102AB000ED1846EB04062B463446A2027A607A688B
:102AC00042EA93527A609B023B6097E818001846EE
:102AD0002146FB684FF000041A462346FDF700FC30
:102AE00003460C467B610B4B5B681B0C03F0030336
:102AF00001335B00BB607A69BB68B2FBF3F33B61F7
:102B000002E0054B3B6100BF3B6918461C37BD46E0
:102B1000BDE8F08F003802400024F40040787D01C9
:102B200080B400AF034B1B681846BD465DF8047BBC
:102B3000704700BF0000002080B584B004AF01F0F2
:102B400039FA184B00221A60174B00221A60174BF3
:102B500000221A60164B0293164B01930023009338
:102B6000124B114A0F49144805F01CFF124806F099
:102B7000D3F8114B93F8313003F00403002B03D04A
:102B80000D4806F0D9F802E00B4806F041F90B4970
:102B9000094806F06FF9084801F0A0FD00BFBD46E6
:102BA00080BD00BFA0060020A4060020A8060020CB
:102BB000710701084931000868060020B531000896
:102BC00080B500AF034800F09FFA0DF0D5F800BFC4
:102BD00080BD00BF6806002080B58EB000AF786071
:102BE00007F1240300221A605A609A60DA601A61C1
:102BF0007B681B683F4A934278D13F4A3E4B1B6B30
:102C000043F0007313633C4B1B6B03F000733B6298
:102C10003B6A394A384B1B6B43F080631363364B76
:102C20001B6B03F08063FB61FB69334A324B1B6B08
:102C300043F000631363304B1B6B03F00063BB6115
:102C4000BB692D4A2C4B1B6B43F0040313632A4BC7
:102C50001B6B03F004037B617B69274A264B1B6BCC
:102C600043F001031363244B1B6B03F001033B612F
:102C70003B69214A204B1B6B43F0020313631E4B3D
:102C80001B6B03F00203FB60FB6832237B620223B1
:102C9000BB620023FB6203233B630B237B6307F1CF
:102CA000240319461548FFF7E1F886237B620223C7
:102CB000BB620023FB6203233B630B237B6307F1AF
:102CC000240319460E48FFF7D1F84FF460537B6296
:102CD0000223BB620023FB6203233B630B237B6362
:102CE00007F1240319460748FFF7C0F800BF38373B
:102CF000BD4680BD0080024000380240000802400E
:102D0000000002400004024080B586B000AF786049
:102D100000233B614D4B4E4A1A604C4B01225A60D6
:102D20004A4B4FF480429A60484B4FF40062DA609D
:102D3000464B01221A8200233B7280237B72E123DF
:102D4000BB720023FB7200233B7300237B733F4A5B
:102D500007F1080353613D4B00229A613B4B00226F
:102D6000DA613A4B4FF400021A623848FDF77CFFF3
:102D70000346FB75FB7D002B08D17B6893F831304F
:102D800043F00403DAB27B6883F831200423314A2C
:102D900031492E48FEF704F90423304A30492B48C4
:102DA000FEF767F97B68062283F83020274B5B69C2
:102DB0001A787B6883F82A20244B5B695A787B68F1
:102DC00083F82B20214B5B699A787B6883F82C2051
:102DD0001E4B5B69DA787B6883F82D201B4B5B699F
:102DE0001A797B6883F82E20184B5B695A797B68C7
:102DF00083F82F207B6840F2DC521A857B6893F8B9
:102E0000313043F00A03DAB27B6883F831200F488F
:102E1000FEF7D8FB07F110031A461D210B48FEF7F9
:102E200003FB3B6943F00B033B613B691A461D21E1
:102E30000648FEF761FB07F110031A461D210348FF
:102E4000FEF7F2FA00BF1837BD4680BD7C1F002098
:102E500000800240C41F0020AC0600202C07002088
:102E6000FC1E002080B58AB000AF786039604B4B03
:102E7000DB6A9B68FB6100237B6100233B610023CD
:102E8000FB600023BB60454BDB6ABB6100233B61F9
:102E90003B683B625AE0BB691B68002B03DAF823EE
:102EA00087F827305CE03B6A5B89FB600023BB60EE
:102EB0002FE0FA693B69D0183B6A5A68BB68D118A1
:102EC0003A6940F2F4539B1A1A460DF084FDBB692F
:102ED000DB68BB61BB691B68002B03DAF82387F84A
:102EE00027303DE0BB699B68FB613A69FB6813448E
:102EF000A3F2F453FB60BA683B69D31A03F2F453AC
:102F0000BB607A693B69D31A03F2F4537B610023F7
:102F10003B61FA683B69134440F2F4529342C8D8CB
:102F2000FA693B69D0183B6A5A68BB681344FA686F
:102F300019460DF050FD3A69FB6813443B617A690C
:102F4000FB6813447B613B6A1B683B623B6A002B56
:102F5000A1D179691148FEF7F9F8002387F82730E5
:102F60000E4B1A6841F2140313441B6803F020034C
:102F7000002B0DD0094B1A6841F214031344202290
:102F80001A60064B1A6841F20403134400221A60C7
:102F900097F9273018462837BD4680BD7C1F002092
:102FA00080B58CB000AF78600023FB620023BB6269
:102FB0000023FB810023FB610023BB6100237B61B5
:102FC00000233B614F48FEF7ABF90346002B01D0CD
:102FD000002392E04B4BDB6BFB814A4B1B6C7B620B
:102FE000FB89002B07D0FB894FF4C17219460020E2
:102FF00005F0DCFFF862FB6A002B4BD0414B1B6BEA
:103000003B620023FB61FB6ABB6240E0BB6A5B89F9
:103010007B610023BB6121E0BB6A5A68BB69D018A1
:103020007A6AFB69D118FA6940F2F4539B1A1A467E
:103030000DF0D1FC3B6ADB683B623B6A9B687B62BC
:10304000FA697B691344A3F2F4537B61BA69FB69A3
:10305000D31A03F2F453BB610023FB617A69FB6965
:10306000134440F2F4529342D6D8BB6A5A68BB6903
:10307000D0187A6AFB6913447A6919460DF0ABFCE3
:10308000FA697B691344FB61BB6A1B68BB62BB6A5C
:10309000002BBBD11B4B1B6B3B6200233B610BE046
:1030A0003B6A1B6843F000423B6A1A603B6ADB687C
:1030B0003B623B6901333B61124B9A6B3B699A421D
:1030C000EED8104B00229A630E4B1A6841F214039B
:1030D00013441B6803F08003002B0DD0094B1A68C2
:1030E00041F21403134480221A60064B1A6841F21D
:1030F0000803134400221A60FB6A18463037BD46A5
:1031000080BD00BF7C1F002080B584B000AF786018
:103110007868FFF745FFF860FB68002B10D07B68EC
:103120001B697968F86898470346FB7297F90B307A
:10313000002B06D0F86806F01BFA0023FB6000E0C5
:1031400000BF1037BD4680BD80B582B000AF78604B
:103150007B68002B06D10E4B40F207220D490E482A
:103160000DF04CFC7B68732283F832207B6874225C
:1031700083F833207B68094A5A617B68084A9A6160
:103180007868FFF7C1FD002318460837BD4680BDAB
:10319000C8180108E4180108F41801082D65000892
:1031A000652E000880B500AFFDF74CFC03461846BD
:1031B00080BD000080B584B000AF78600023FB6064
:1031C0000023BB607B6893F8313003F00403002BCD
:1031D0005BD0334B5B68002B40D04FF48052002112
:1031E0002F48FEF789F9FDF72DFC0346FB6007F138
:1031F00008031A4601212A48FEF716F9FDF722FCBA
:103200000246FB68D31AB3F57A7F26D8BB6803F071
:103210002003002BEBD007F108031A461F2120489A
:10322000FEF702F9BB6803F01003002B04D01C4B1F
:103230004FF40062DA6002E0194B0022DA60BB68EA
:1032400003F00403002B03D0154B00229A6014E016
:10325000134B4FF480429A600FE000BF104BDB68C5
:10326000DB089AB20E4B9B685B089BB213439BB280
:103270001A4600210A48FEF73FF900210848FEF7E8
:10328000FFF90748FEF79EF902E00548FEF7C9F985
:10329000786800F007F800BF1037BD4680BD00BF5A
:1032A0007C1F002080B483B000AF786000BF0C3773
:1032B000BD465DF8047B704780B584B000AF786090
:1032C00039607B68002B02D03B68002B02D16FF085
:1032D0000F0328E0164BFB6020E0FB685B68194693
:1032E0003868FCF795FF0346002B14D1FB689A68F9
:1032F0007B681A60FB68DA687B685A60FB68DA688A
:103300007B689A607B680022DA60FB681A7C7B68C5
:103310001A74002307E0FB681B68FB60FB68002B46
:10332000DBD16FF0050318461037BD4680BD00BFE6
:10333000704A010880B483B000AF786000BF0C37DA
:10334000BD465DF8047B704780B483B000AF786001
:103350007B685A687B689B68D31A18460C37BD4651
:103360005DF8047B704780B582B000AF78602C2296
:10337000002178680DF03AFB00BF0837BD4680BDDC
:1033800080B582B000AF2C2005F020F978607B6812
:10339000002B02D07868FFF7E6FF7B6818460837F5
:1033A000BD4680BD80B582B000AF78607B685B6948
:1033B000002B07D07B685B691846FFF7BBFF7B6873
:1033C00000225A617B681B6A002B07D07B681B6A4E
:1033D000184606F0CDF87B6800221A6200BF083755
:1033E000BD4680BD80B582B000AF78607B68002BA1
:1033F00005D07868FFF7D6FF786804F081FF00BF3A
:103400000837BD4680BD000080B586B000AFF860CB
:10341000B9607A60FB707B68002B06D12C4B40F2C0
:1034200019222C492C480DF0E9FA7B681B88FB8295
:10343000FB8A002B01D1002345E0FB68B3F8643020
:10344000BB82BA8AFB8A9A4201D2BB8AFB82FB68A2
:103450005B8E5B00BB82FA8ABB8A9A4201D9BB8A27
:10346000FB82FB78FA8AB968F8680AF00BFE03461B
:10347000FB7497F91330B3F1FF3F0FD1FB68B3F83A
:103480006430002B04D0FB68B3F86630082B02D9F7
:103490000123FB8202E0FB8A5B08FB8297F9133071
:1034A000B3F1FF3F02D1FB8A012BDAD897F9133031
:1034B000002B03D17B68FA8A1A8002E07B68002225
:1034C0001A8097F9133018461837BD4680BD00BFE3
:1034D0005C19010894190108A419010880B586B087
:1034E00000AFF860B9601346FB710021F86807F07F
:1034F0008BFE0021F86807F099FE0021F86807F0BC
:10350000D9FE00220021F86807F00EFF0021F868BC
:1035100007F0AEFEBB68002B02D0B868FFF762FF71
:10352000FB79002B04D0F86806F0B2FD00230FE011
:10353000F86806F0C3FC0346FB7597F91730002BBB
:1035400004D004220449F86807F0EEFE97F917301A
:1035500018461837BD4680BD1F3C000880B582B0B4
:1035600000AF78603960002239687868FFF7B6FFED
:10357000034618460837BD4680BD80B582B000AF0F
:103580007860396039687868FFF7E8FF00BF08376E
:10359000BD4680BD80B584B000AF786039603B68BF
:1035A0005B69002B05D139687868FFF7E6FF0023D7
:1035B00016E03B685B691846FFF7C6FEF860FB68DB
:1035C000002B05DC39687868FFF7D7FF002307E098
:1035D000054B40F29D42054905480DF00FFA0123C5
:1035E00018461037BD4680BD5C190108CC1901088A
:1035F000A419010880B584B000AF78603960002359
:10360000FB733B685B6A4FF6FE72934203D83B68DC
:103610005B6A9BB201E04FF6FF73BB813B6899691F
:1036200007F10C0200237868FFF7EEFE0346BB7338
:1036300097F90E30002B0DD10123FB733B689B697A
:10364000BA891A443B689A613B685B6ABA899A1ADC
:103650003B685A62FB7B18461037BD4680BD80B57B
:1036600084B000AF786039600023FB733B68002BA7
:1036700001D1002325E03B685B6A002B08D1396843
:103680007868FFF787FF0346002B01D1002318E07D
:1036900039687868FFF7AEFF0346FB733B685B6AE7
:1036A000002B0DD13B685B691846FFF74DFE0346C2
:1036B000002B05DC39687868FFF75FFF002300E026
:1036C000FB7B18461037BD4680BD000080B584B036
:1036D00000AF786039603B681C4A1A607A683B68C2
:1036E0001B6819461046FFF7E7FD0346FB7397F981
:1036F0000F30002B24D03B68154A1A607A683B686B
:103700001B6819461046FFF7D7FD0346FB7397F970
:103710000F30002B14D03B680E4A1A607A683B6861
:103720001B6819461046FFF7C7FD0346FB7397F960
:103730000F30002B04D03B6800221A60002300E009
:103740007B6818461037BD4680BD00BF041A0108CB
:10375000101A01081C1A010880B58EB000AFF8607D
:10376000B9607A60FB687B627B6A002B06D1654B8F
:1037700040F2AE72644965480DF040F9BB68002B19
:1037800006D1604B40F2AF72614960480DF036F9E6
:10379000BB685B69002B03D1BB689B69002B02D01F
:1037A0006FF00703AAE0BB681B6A002B03D1BB685C
:1037B0007A6A1A6205E0BB681B6A796A184605F0E6
:1037C00099FF786A05F074FFBB681B6A1B68002BC1
:1037D00012D0BB681B6A1B8940F2FF32934228BF9C
:1037E00013467B86BB68186A7A8E0023494906F027
:1037F000B9F8484B7B6305E07B6A5B687B637B6A57
:103800005B897B867B8E062B63D97B8E1A46424969
:10381000786B00F099FB38623B6A002B59D000238B
:10382000FB6204223D49786B0DF048F90346002BFA
:1038300017D17B6B0333FB61FB6901331A467B6B4A
:10384000D31A9BB27A8ED31A7B83FB6901337A8BAE
:103850003349184600F078FBB862BB6A002B11D1DF
:1038600006E07B6B043300221A706FF00F0345E013
:10387000FB6901337A8B2849184600F065FBB86272
:103880000123FB62BB6AFA6901329B1A3B83BB6A64
:10389000002B1ED0BA6AFB699A421AD97B8E1A464F
:1038A0002049786B00F050FB0346002B11D0FB69D8
:1038B00001337B61FB6900221A703B8B7A691344E8
:1038C00000221A70FA6A7969B86800F02DF8034688
:1038D00014E0BB681B6A184605F0D2FE03467B82E3
:1038E000BB681B6A1B89B3F5806F05D27B8A052BE9
:1038F00002D86FF0040301E06FF00F031846383769
:10390000BD4680BD5C190108281A0108A4190108E8
:10391000341A0108A0000020401A0108441A0108C6
:103920004C1A0108501A010880B592B002AFF86035
:10393000B9607A600023BB6300237B63002387F8B0
:103940002F30BB681846FCF76DFCB862BB6A002BD1
:103950006BD0BA68BB6A013B13441B782F2B64D130
:10396000BB68534A934202D1BB6A012B5DD1BB6A4B
:10397000013B3F2B28BF3F237B627B6A002B0AD091
:10398000BB687A6A19464A480DF025F8484A7B6AAE
:10399000134400221A700023FB6343E07B6A002B70
:1039A00028D07B6AC3F13F033B623B6A002B1ED0E9
:1039B000404AFB6B52F833301846FCF733FCF86191
:1039C000FA693B6A934228BF1346BB617B6A384A57
:1039D0009818384AFB6B52F83330BA6919460CF024
:1039E000FAFF7A6ABB691344314A0021D154304B43
:1039F0003B6304E02F4AFB6B52F833303B63FB68B8
:103A0000396B1846FFF758FC0346FB7597F91730DA
:103A1000002B04D13B6BBB60FB68BB6305E0FB6B19
:103A20000133FB63FB6B042BB8D9BB6B002B24D198
:103A3000BB683F2118460DF033F878637B6B002B91
:103A400005D07B6B00221A707B6B01337B63FB68B4
:103A5000BA6811461846FFF72FFC0346FB7597F925
:103A60001730002B02D1FB68BB6306E007F10803A7
:103A70001946F868FFF72AFEB863BB6B002B06D126
:103A800007F108031946F868FFF720FEB863BA6823
:103A90007B6B019397F82F30009313467A68B96BCC
:103AA000F86800F009F8034618464037BD4680BD67
:103AB000A0040020844A010880B586B000AFF860F9
:103AC000B9607A603B60BB68002B5DD0BB681B6847
:103AD000002B06D1354B40F60B12354935480CF01A
:103AE0008DFFFB68BA685A61BB681A68FB689A6107
:103AF000BB685B68002B06DA2C4B40F634122E496B
:103B00002C480CF07BFFBB685B681A46FB685A6266
:103B1000FB68002283F82820FB685B691B7C03F0AC
:103B20000103002B06D1214B40F6441223492148C2
:103B30000CF064FF7B68002B33D0FB685B691B7C57
:103B400003F00103002B2CD0FB689869FB685B6ACB
:103B50001A461B4900F0F8F978617B69002B20D0E8
:103B60007B6904331A46FB689B69D31A3B61FB6887
:103B70009A693B691A44FB689A61FB685A6A3B6917
:103B8000D21AFB685A620CE0FB6800225A61FB689B
:103B900000229A61FB6800225A62FB68002283F8C7
:103BA0002820002318461837BD4680BD5C1901083F
:103BB000581A0108A41901086C1A01088C1A010886
:103BC000501A010880B584B000AF78600B46FB70D6
:103BD0007B68FB60FB68002B02D0F868FFF702FCF3
:103BE00000BF1037BD4680BD80B586B000AFF8601D
:103BF000B9601346FB80FB687B617B69002B01D1B8
:103C0000002308E07B69002283F828207969B868DE
:103C1000FFF725FD002318461837BD4680BD80B547
:103C200084B000AF786039607B68FB60FB68002B74
:103C300007D100213868FFF791FC0346FB7200238F
:103C400021E0FB6893F828300133DAB2FB6883F88F
:103C50002820FB6893F82830042B05D1F9683868D0
:103C6000FFF77CFC00230EE0FB685B69002B09D0AA
:103C7000F9683868FFF7F3FC0346002B02D0386878
:103C80000AF0F0FF002318461037BD4680BD000043
:103C900080B586B000AFF860B9607A60FB70FB68F1
:103CA0007B6197F90330002B05D17B68002B02D094
:103CB0007B69002B11D17B68002B08D07B681B89A6
:103CC0001946B86806F0C0FB786805F051FC7969C0
:103CD000B868FFF743FC002355E07B681B89194651
:103CE000B86806F0B1FB7B695B69002B47D1BA6805
:103CF00079697868FFF730FD0346FB7497F9133054
:103D0000002B15D097F9133013F1050F10D097F948
:103D1000133013F1100F0BD097F9133013F1080F74
:103D200006D01B4B40F605221A491B480CF066FED4
:103D300097F9133013F1050F0BD07B691B6A002B29
:103D400007D07B691B6A184605F012FC7B690022CC
:103D50001A62786805F00CFC97F91330002B04D137
:103D60007969B868FFF77BFC0CE097F9133013F121
:103D7000100F07D17969B868FFF7F0FB02E07868A7
:103D800005F0F6FB002318461837BD4680BD00BF7E
:103D90005C190108B81A0108A419010880B586B099
:103DA00000AFF860B9601346FB7197F90730002B3C
:103DB00002D1BB68002B02D16FF0050325E0012181
:103DC000B86807F021F8FFF7DBFA78617B69002B10
:103DD00002D14FF0FF3318E07B69BA68DA61796984
:103DE000B86807F011FA0B49B86807F01FFA0A49DA
:103DF000B86807F05FFA04220849B86807F094FA37
:103E00000749B86807F034FA002318461837BD464A
:103E100080BD00BF913C0008C53B00081F3C000866
:103E2000E93B000880B584B000AF78600B467B802A
:103E30007B68002B29D00121786806F0E5FF7B889C
:103E40001A461449786806F02FF90346FB7397F970
:103E50000F30002B06D0104B40F657220F49104868
:103E60000CF0CCFDFF21786806F0D6F978607B680D
:103E7000002B06D1084B40F659220A4908480CF09D
:103E8000BDFD0949786807F037FA00BF1037BD4615
:103E900080BD00BFAC4A01085C190108E41A0108A2
:103EA000A4190108001B01089D3D000880B582B0DF
:103EB00000AF2E2007F09AF978607B68002B06D1BE
:103EC000074B40F67222074907480CF097FD502136
:103ED0007868FFF7A7FF00BF0837BD4680BD00BF69
:103EE0005C190108201B0108A419010880B483B0E3
:103EF00000AF0346FB80FB881B021AB2FB881B0A3B
:103F00009BB21BB213431BB29BB218460C37BD4683
:103F10005DF8047B704780B483B000AF78607B6845
:103F20001A067B681B0203F47F031A437B681B0A93
:103F300003F47F431A437B681B0E134318460C3768
:103F4000BD465DF8047B704780B586B000AFF86071
:103F5000B9607A60B868FCF765F938613B69002B95
:103F600001D1FB6822E0FB687B6112E07B691A7873
:103F7000BB681B789A4209D13A69B96878690CF034
:103F80009DFD0346002B01D17B690FE07B69013366
:103F90007B617B691B78002B07D07A693B691A44E7
:103FA000F9687B680B449A42E0D900231846183719
:103FB000BD4680BD80B582B000AF00237B6004F0B9
:103FC00027F904F02DFC04F0E5FC0BF013FF05F0DD
:103FD0006DFD0BF08BFE00BF0837BD4680BD0000B5
:103FE00080B500AF204B1B78002B33D11F4B1B68D3
:103FF000002B05D01E4BE5221E491F480CF0FEFC8D
:104000000CF06EFB0246194B1A60184B1B68002B14
:1040100002D14FF0FF3324E0144B1B68134A12689F
:10402000527A42F02002D2B25A72104B1B684422DC
:10403000124918460CF0FCF90C4B1B6843220F493F
:1040400018460CF07DFA094B1B6800220C491846F3
:104050000CF0E4FA044B1B780133DAB2024B1A700D
:104060000023184680BD00BFE4040020E0040020C7
:104070003C1B0108741B01089C1B0108AC4A010889
:10408000A958000880B500AF0E4B1B78002B05D156
:104090000D4BFF220D490E480CF0B0FC094B1B786C
:1040A000013BDAB2074B1A70064B1B78002B07D185
:1040B000084B1B6818460CF0D1FA064B00221A6018
:1040C00000BF80BDE40400203C1B0108C41B0108A4
:1040D0009C1B0108E004002080B584B000AF78602C
:1040E0007B685B6AFB600C21F86801F01BF8064BEB
:1040F000054A0549786804F0C5FD786800F00EFCB3
:1041000000BF1037BD4680BDAC4A010880B584B001
:1041100000AF78607B685B6AFB600821F86801F09B
:1041200001F8FB681C3300221946786802F000FB96
:104130000346FB72FB689B79FF2B05D0FB689B79DC
:104140000133DAB2FB689A714FF4FA733B813B8911
:1041500003F2F313064A82FB03125211DB17D31A40
:104160009AB2FB681A8100BF1037BD4680BD00BF00
:10417000D34D621080B584B000AF786039607B6841
:104180005B6AFB600C4B9B78002B11D0FB68002214
:104190001A810A4B9B681846FFF7BDFE0246FB6872
:1041A0009A613B681A69FB68DA61786800F008F880
:1041B00000BF1037BD4680BDAC370020B4370020AB
:1041C000B0B58AB002AF78607B68002B09D1714B23
:1041D00040F27712704971480CF010FC6FF00F0339
:1041E000D3E07B685B6ABB61BB69002B09D1694B7B
:1041F00040F279126A4969480CF000FC6FF005033F
:10420000C3E00121B86900F08DFF07F10C03032220
:10421000B969786801F010FC78617B69002B00F0C7
:1042200085807B695B683B61B8893B6903F1F0017C
:104230000223392200F090FF0346BB81B8893B6915
:1042400003F1F0017B681B8D1A4600F0DFFF034687
:10425000BB81B8893B6903F1F0010423322200F0ED
:104260007BFF0346BB81BC893B6903F1F005BB6959
:10427000DB691846FFF74FFE03461A4629462046DB
:1042800000F0F6FF0346BB81B8893B6903F1F001FA
:104290000423362200F060FF0346BB81BC893B69E2
:1042A00003F1F005BB699B691846FFF734FE03462E
:1042B0001A462946204600F0DBFF0346BB81B88939
:1042C0003B6903F1F0010323372200F045FF034669
:1042D000BB810023BB770EE0B8893B6903F1F00195
:1042E000BB7F304AD35C1A4600F06AFF0346BB81AD
:1042F000BB7F0133BB77BB7F022BEDD9B8893B690C
:10430000F0337A69194601F06DFC274B1868274B8A
:1043100001937B6800934323254A79690BF0A0FF42
:104320000346FB77786905F023F901E0FF23FB776B
:10433000BB699B79FF2B05D0BB699B790133DAB24E
:10434000BB699A71BB699B79052B0DD8BB699B79B9
:104350001A46012393409BB21A465201D21A920088
:104360001344DB009BB201E04EF66023FB81FB8926
:1043700003F2F3130F4A82FB03125211DB17D31A15
:104380009AB2BB691A8197F91F3018462037BD468B
:10439000B0BD00BF3C1B0108E81B01089C1B0108C5
:1043A000041C01080C000020E0040020AC4A0108B5
:1043B000B04A0108D34D621080B582B000AF274BE0
:1043C0001B687B6042E07B685B6A3B603B68002B5C
:1043D00039D03B685B79002B35D03B689B8A002B3A
:1043E00012D03B685B8A01339AB23B685A823B68C1
:1043F0005A8A3B689B8A9A4206D1786800F0F8FD99
:10440000786800F06BF91EE03B681B8A002B0BD02C
:104410003B681B8A5A1E91B23A681182012B03D164
:10442000786800F0C7F80EE03B68DB89002B0AD003
:104430003B68DB895A1E91B23A68D181012B02D1C7
:10444000786800F088F87B681B687B607B68002BCD
:10445000B9D100BF0837BD4680BD00BF106D002038
:1044600080B582B000AF164B1B687B6020E07B6894
:104470005B6A3B603B68002B17D03B681B89012BB4
:1044800006D93B681B89013B9AB23B681A810CE054
:104490003B681B89012B08D13B681B89013B9AB201
:1044A0003B681A81786800F00DF87B681B687B60B8
:1044B0007B68002BDBD100BF0837BD4680BD00BF45
:1044C000106D002080B584B000AF78607B685B6AB7
:1044D000FB60FB685B790C2B03D0FB685B79062BD8
:1044E00003D1786800F01AFA31E0FB685B79012BA0
:1044F0000ED1FB689B79052B03D87868FFF760FE27
:1045000025E0786800F074FD786800F0E7F81EE0B8
:10451000FB685B79082B0BD1FB689B79012B03D8D7
:104520007868FFF7F3FD12E0786800F099FA0EE082
:10453000FB685B79032B0AD1FB689B79012B03D8BD
:10454000786800F09FFC02E0786800F0E7F900BFAF
:104550001037BD4680BD80B584B000AF78607B6801
:104560005B6AFB60FB685B79012B07D0FB685B79BA
:104570000A2B03D0FB685B79052B17D1786800F014
:1045800049FBFB689B891A46FB685B8AD31A012B9F
:104590000CDDFB689B891A46FB685B8AD31A002BEB
:1045A00000DA01335B109AB2FB68DA8100BF103782
:1045B000BD4680BD80B584B000AF78607B685B6A23
:1045C000FB60FB685B79012B0BD0FB685B790A2BE6
:1045D00007D0FB685B79052B03D0FB685B79042B64
:1045E00017D1786800F0B2FBFB689B8A1A46FB681B
:1045F0005B8AD31A012B0CDDFB689B8A1A46FB6889
:104600005B8AD31A002B00DA01335B109AB2FB6885
:104610001A8200BF1037BD4680BD000080B584B04F
:1046200000AF786039607B685B6AFB60FB680022E2
:104630001A62FB6800225A62264BDB78002B03D0FB
:10464000254BDA68FB689A62224B1B79002B04D059
:10465000214B1A69FB68DA6204E0FB689B6A5A081E
:10466000FB68DA621B4B5B79002B04D01A4B5A694A
:10467000FB681A6307E0FB689A6A1346DB009B1A23
:10468000DA08FB681A633B681A69FB68DA61114B48
:104690009B79002B0BD0104B9B691846FFF73BFC16
:1046A0000246FB681A62FB680122DA7102E0FB68CD
:1046B0000022DA71074BDB79002B07D0064BDB6950
:1046C0001846FFF728FC0246FB685A6200BF103705
:1046D000BD4680BDAC370020B437002080B584B023
:1046E00000AF78607B68002B09D1374B40F2E7229E
:1046F000364937480CF082F96FF00F0360E07B68B1
:1047000093F8313003F00103002B09D12E4B4FF405
:104710003A7230492E480CF071F96FF00F034FE0F8
:104720007B685B6AFB607B681B8DB3F5107F02D2F0
:104730004FF0FF3344E0FB68002B0DD1342003F031
:1047400045FFF860FB68002B02D14FF0FF3337E0E4
:104750007B68FA685A6205E0FB681B79002B01D080
:10476000FFF790FC34220021F8680CF03FF9FFF7C6
:1047700037FC0346002B02D04FF0FF3320E0FB68EC
:1047800001221A717B6893F8313003F00403002B87
:1047900005D10221F86800F0C5FC002310E078681C
:1047A00000F0BCF80346FB7297F90B30002B05D0E4
:1047B000786800F01DFC4FF0FF3301E097F90B30F3
:1047C00018461037BD4680BD3C1B0108201C01085F
:1047D0009C1B0108641C010880B584B000AF7860A0
:1047E00039607B68002B07D10E4B40F28B320E49AB
:1047F0000E480CF003F912E07B685B6AFB60FB6813
:10480000002B0CD0FB685B79082B08D13B681A6839
:10481000FB68DB699A4202D1786800F009F810372A
:10482000BD4680BD3C1B0108201C01089C1B0108E3
:10483000B0B58AB002AF78607B685B6ABB610C215F
:10484000B86900F06FFC07F10C030422B9697868BD
:1048500001F0F2F878617B69002B35D07B695B68E9
:104860003B61B8893B6903F1F0010423322200F077
:1048700073FC0346BB81BC893B6903F1F005BB694E
:10488000DB691846FFF747FB03461A4629462046D0
:1048900000F0EEFC0346BB81B8893B69F0337A69CE
:1048A000194601F09FF9194B1868194B01937B6861
:1048B00000934323174A79690BF0D2FC0346FB7738
:1048C000786904F055FE01E0FF23FB77BB699B7913
:1048D000FF2B05D0BB699B790133DAB2BB699A71B2
:1048E00042F21073FB81FB8903F2F3130A4A82FB45
:1048F00003125211DB17D31A9AB2BB691A8197F9C6
:104900001F3018462037BD46B0BD00BFE004002070
:10491000AC4A0108B04A0108D34D621080B58AB094
:1049200002AF78607B685B6ABB610023FB75BB6983
:104930000022DA610621B86900F0F4FB07F10803F0
:104940000122B969786801F077F838613B69002B7A
:104950004BD03B695B68FB603889FB6803F1F00171
:104960000223392200F0F8FB03463B813889FB68BB
:1049700003F1F0017B681B8D1A4600F047FC0346EB
:104980003B813889FB6803F1F0010323372200F0F3
:10499000E3FB03463B810023FB770EE03889FB688D
:1049A00003F1F001FB7F294AD35C1A4600F008FCB2
:1049B00003463B81FB7F0133FB77FB7F022BEDD965
:1049C0003889FB68F0333A69194601F00BF9204B3E
:1049D0001868204B01937B68009343231E4A396972
:1049E0000BF03EFC386904F0C3FDBB699B79FF2BDB
:1049F00005D0BB699B790133DAB2BB699A71BB6997
:104A00009B79052B0DD8BB699B791A4601239340EE
:104A10009BB21A465201D21A92001344DB009BB299
:104A200001E04EF660237B817B8903F2F3130B4A8E
:104A300082FB03125211DB17D31A9AB2BB691A8197
:104A400097F9173018462037BD4680BD0C0000206E
:104A5000E0040020AC4A0108B04A0108D34D6210BE
:104A600080B588B000AF78607B68002B07D1644BBD
:104A700040F21542634964480BF0C0FFBCE07B681C
:104A80005B6ABB61BB69002B07D15D4B40F21742EB
:104A90005E495D480BF0B2FFAEE0BB6900225A826E
:104AA000BB699B6AB3F1FF3F19D0BB699B6A1E3398
:104AB000574AA2FB03235B09FB61FB69B3F5803F07
:104AC00002D34FF6FF73FB61FB699AB2BB699A820E
:104AD000BB699B8A002B02D1BB6901229A82BB6908
:104AE000DB6AB3F1FF3F1DD0BB69DB6A1E33484A66
:104AF000A2FB03235B09FB61FB69B3F5803F02D393
:104B00004FF6FF73FB61FB699AB2BB695A81BB69BF
:104B10005B89002B02D1BB6901225A81BB695A898A
:104B2000BB69DA81BB691B6BB3F1FF3F1DD0BB6969
:104B30001B6B1E33364AA2FB03235B09FB61FB6937
:104B4000B3F5803F02D34FF6FF73FB61FB699AB266
:104B5000BB699A81BB699B89002B02D1BB69012289
:104B60009A81BB699A89BB691A82BB695A89BB69F8
:104B70009B899A4206D3BB699B89002B02D0BB69F3
:104B800000225A81BB69DB79002B03D0BB691B6A09
:104B90003B6114E0BB691C331B78FB7597F9173038
:104BA000002B02DBFF233B6109E0FB7DBF2B03D918
:104BB0006FF07F433B6102E04FF6FF733B61BB69DF
:104BC0005B6AFB60FB68002B08D1BB69DA693B6953
:104BD0001340FB60FB6843F08073FB600A21B869F7
:104BE00000F0A0FABB6903F11C0107F10C0307F107
:104BF0001002786804F046F82037BD4680BD00BF3B
:104C00003C1B01089C1C01089C1B0108B81C0108E6
:104C10008988888880B58AB002AF78607B685B6AD3
:104C2000BB610521B86900F07DFA07F10C0303228E
:104C3000B969786800F000FF78617B69002B4ED07D
:104C40007B695B683B61B8893B6903F1F001022332
:104C5000392200F081FA0346BB81B8893B6903F130
:104C6000F0017B681B8D1A4600F0D0FA0346BB8129
:104C7000B8893B6903F1F0010323372200F06CFA95
:104C80000346BB810023BB770EE0B8893B6903F183
:104C9000F001BB7F2A4AD35C1A4600F091FA034622
:104CA000BB81BB7F0133BB77BB7F022BEDD9B889BA
:104CB0003B69F0337A69194600F094FF214B18687C
:104CC000BB6903F118027B680093432379690BF0F9
:104CD00053FA0346FB77786904F04AFC01E0FF23AE
:104CE000FB77BB699B79FF2B05D0BB699B790133AF
:104CF000DAB2BB699A71BB699B79092B0AD8BB6987
:104D00009B799BB21A465201D21A920013441B019E
:104D10009BB201E044F62063FB81FB8903F2F313AD
:104D2000094A82FB03125211DB17D31A9AB2BB69EC
:104D30001A8197F91F3018462037BD4680BD00BF45
:104D40000C000020E0040020D34D621080B58AB032
:104D500002AF78607B685B6ABB610421B86900F0D0
:104D6000E1F907F10C030322B969786800F064FEE9
:104D700078617B69002B4CD07B695B683B61B889AB
:104D80003B6903F1F0010223392200F0E5F9034603
:104D9000BB81B8893B6903F1F0017B681B8D1A4622
:104DA00000F034FA0346BB81B8893B6903F1F00196
:104DB0000323372200F0D0F90346BB810023BB77E1
:104DC0000EE0B8893B6903F1F001BB7F294AD35C4F
:104DD0001A4600F0F5F90346BB81BB7F0133BB7770
:104DE000BB7F022BEDD9B8893B69F0337A6919464C
:104DF00000F0F8FE204B18687B68009343231F4A9D
:104E000079690BF0B9F90346FB77786904F0B0FBD8
:104E100001E0FF23FB77BB699B79FF2B05D0BB69C2
:104E20009B790133DAB2BB699A71BB699B79092B13
:104E30000AD8BB699B799BB21A465201D21A9200DA
:104E40001344DB009BB201E042F21073FB81FB894B
:104E500003F2F3130A4A82FB03125211DB17D31A2F
:104E60009AB2BB691A8197F91F3018462037BD46A0
:104E700080BD00BF0C000020E0040020B04A010803
:104E8000D34D6210B0B58AB002AF78607B685B6AC0
:104E9000BB610321B86900F045F907F10C03032257
:104EA000B969786800F0C8FD78617B69002B66D02D
:104EB0007B695B683B61B8893B6903F1F0010223C0
:104EC000392200F049F90346BB81B8893B69F033C8
:104ED0004FF41072194600F099F90346BB81B88966
:104EE0003B6903F1F0010423322200F035F9034657
:104EF000BB81BC893B6903F1F005BB69DB691846DE
:104F0000FFF709F803461A462946204600F0B0F993
:104F10000346BB81B8893B6903F1F00103233722C3
:104F200000F01AF90346BB810023BB770EE0B88975
:104F30003B6903F1F001BB7F294AD35C1A4600F0BC
:104F40003FF90346BB81BB7F0133BB77BB7F022B9D
:104F5000EDD9B8893B69F0337A69194600F042FE11
:104F6000204B18687B68009343231F4A79690BF034
:104F700003F90346FB77786904F0FAFA01E0FF23AE
:104F8000FB77BB699B79FF2B05D0BB699B7901330C
:104F9000DAB2BB699A71BB699B79092B0AD8BB69E4
:104FA0009B799BB21A465201D21A92001344DB003D
:104FB0009BB201E042F21073FB81FB8903F2F31311
:104FC0000A4A82FB03125211DB17D31A9AB2BB6949
:104FD0001A8197F91F3018462037BD46B0BD00BF73
:104FE0000C000020E0040020B04A0108D34D6210FC
:104FF000B0B58AB002AF78607B685B6AFB61FB6921
:10500000002B00F08480FB695B79002B00F081802D
:10501000FB699B693B61FB6900229A61FB69002285
:10502000DA61FB6900221A62FB6900225A62FB699D
:1050300000221A63FB691A6BFB69DA62FB69DA6AA0
:10504000FB699A62FB6900229A82FB699A8AFB6972
:105050005A82FB695A8AFB691A82FB691A8AFB69C0
:10506000DA81786800F0ECFD0346002B3BD007F1B5
:105070000E030722F969786800F0DEFCB861BB69AD
:10508000002B30D0BB695B687B61F8897B6903F1D9
:10509000F0010423362200F05FF80346FB81FC890F
:1050A0007B6903F1F0053B691846FEF734FF0346C0
:1050B0001A462946204600F0DBF80346FB81F889B2
:1050C0007B69F033BA69194600F08CFD134B186800
:1050D00007F110027B6800934323B9690BF04CF889
:1050E000B86904F045FA0E4B0D4A0D49786803F093
:1050F000C9FD0021F86900F015F8FB691B79002B48
:1051000008D0FEF7BFFFFB6900221A7102E000BF62
:1051100000E000BF2037BD46B0BD00BFE004002066
:10512000AC4A010880B483B000AF78600B46FB70D6
:105130007B685B79FA789A4208D07B68FA785A7172
:105140007B6800229A717B6800221A8100BF0C37AD
:10515000BD465DF8047B704780B582B000AF396012
:1051600011461A460346FB800B467B7113463B7182
:10517000FA883B7913440233442B06D90D4B40F295
:105180009A520D490D480BF039FCFB885A1CFA80E5
:105190001A463B6813447A791A70FB885A1CFA80C5
:1051A0001A463B6813443A791A70FB881846083748
:1051B000BD4680BD3C1B0108D01C01089C1B01089A
:1051C00080B582B000AF03463960FB8013467B7127
:1051D000FB88432B06D90A4B40F2A65209490A48DC
:1051E0000BF00CFCFB885A1CFA801A463B681344EF
:1051F0007A791A70FB8818460837BD4680BD00BF13
:105200003C1B0108141D01089C1B010880B582B0DD
:1052100000AF03463960FB801346BB80FB88023336
:10522000442B06D90F4B40F2AE520F490F480BF0FA
:10523000E5FBFB885A1CFA801A463B681344BA887F
:10524000120A92B2D2B21A70FB885A1CFA801A461D
:105250003B681344BA88D2B21A70FB8818460837E4
:10526000BD4680BD3C1B01084C1D01089C1B01086C
:1052700080B584B000AF0346B9607A60FB81FB89DA
:105280000433442B06D9194B40F2B7521849194838
:105290000BF0B4FBFB895A1CFA811A46BB68134415
:1052A0007A68120ED2B21A70FB895A1CFA811A4619
:1052B000BB6813447A68120CD2B21A70FB895A1C6C
:1052C000FA811A46BB6813447A68120AD2B21A707D
:1052D000FB895A1CFA811A46BB6813447A68D2B219
:1052E0001A70FB8918461037BD4680BD3C1B01086B
:1052F000881D01089C1B010880B590B000AF786044
:1053000039600023FB620023BB6208220021BE48F3
:105310000BF06CFB7B685B892B2B02D86FF00103D1
:10532000ABE27B685B68BB61F023FB867B681B8913
:10533000BB867B683B630CE03B6B5B89FA8ED31AC0
:10534000FB863B6B5B89BA8ED31ABB863B6B1B68B3
:105350003B633B6B002B04D03B6B5B89FA8E9A421C
:10536000EAD23B6B002B02D16FF0010385E2FB8E8A
:105370007B87BB8E3B873B6B5B68FB633DE27B8F30
:10538000FA6B13441B78FB75002387F826304FF027
:10539000FF333B627B8F0233FB83FA8B7B8F9A4216
:1053A00002D26FF0010368E27B8F01333A6B5289BE
:1053B000934207DA7B8F0133FA6B13441B7887F82B
:1053C00027300BE03B6B1B68002B04D03B6B1B684A
:1053D0005B681B7800E0002387F8273097F82730B8
:1053E00087F82630FB7D3B2B00F22D8101A252F87D
:1053F00023F000BFE5540008F554000847560008A4
:105400001755000847560008475600084756000839
:1054100047560008475600084756000847560008F8
:1054200047560008475600084756000847560008E8
:1054300047560008475600084756000847560008D8
:1054400047560008475600084756000847560008C8
:1054500047560008475600084756000847560008B8
:1054600047560008475600084756000847560008A8
:105470004756000847560008475600084756000898
:105480004756000847560008475600084756000888
:105490004756000847560008475600084756000878
:1054A0004756000847560008475600084756000868
:1054B0004756000847560008475600084756000858
:1054C0004355000865550008A1550008C35500085C
:1054D000475600084756000847560008E55500089B
:1054E00025560008002387F8273097F8273087F8DB
:1054F0002630ACE097F82730042B09D0434B40F21C
:105500002E62434943480BF079FA6FF00503B4E18A
:1055100006233B629BE0042387F8263097F8272078
:1055200097F826309A4209D2384B40F233623A4912
:1055300038480BF063FA6FF005039EE107233B62E6
:1055400085E097F82730042B09D0304B40F24162B8
:105550002F4930480BF052FA6FF005038DE1032319
:105560003B6274E097F82730012B09D0274B40F2BB
:105570004F622A4927480BF041FA6FF005037CE19E
:10558000FB8EF02B09D0214B40F251622449214877
:105590000BF034FA6FF005036FE100233B6256E035
:1055A00097F82730012B09D0184B40F255621B4960
:1055B00018480BF023FA6FF005035EE101233B620C
:1055C00045E097F82730042B09D0104B40F2596280
:1055D0000F4910480BF012FA6FF005034DE102235A
:1055E0003B6234E097F82730042B09D0074B40F298
:1055F0005D62074907480BF001FA6FF005033CE1D3
:1056000004233B6223E000BFAC3700203C1B0108B1
:10561000C41D01089C1B0108D01D0108E41D0108E0
:10562000F01D010897F82730042B09D0954B40F264
:105630006162954995480BF0E1F96FF005031CE1B3
:1056400005233B6203E0002387F8263000BFFB7D83
:10565000002B03D17B8F01337B87A4E07A8F97F8EF
:10566000273013440233B3F5803F02DB6FF00103B0
:1056700003E197F827309AB27B8F13449BB2023331
:105680007B8797F82630002B00F08D800023BB60CD
:105690003B6A002B02DB3B6A072B06DD794B4FF49C
:1056A000CF627B4979480BF0A9F97A4A3B6A1344E7
:1056B0001B78002B77D197F82630032B03D897F867
:1056C00026309BB200E00423BB82FB8BBA8A07F131
:1056D0000801386B04F046F903461A46BB8A934228
:1056E00002D06FF00103C8E097F82630042B33D9BD
:1056F00097F8263003F00303DBB2002B09D0614B8F
:1057000040F28162644961480BF078F96FF005035B
:10571000B3E0604A3B6A134401221A70BB68184622
:10572000FEF7F9FB01465D4A3B6A42F8231097F801
:105730002630043B87F82630FB8B04337B827A8A41
:10574000FB8B9A4202D26FF0010396E07B8AFB83C7
:105750003B6A01333B629BE797F82630042B06D166
:10576000BB681846FEF7D7FB0346BB6011E097F80D
:105770002630012B09D0434B4FF4D26248494348AD
:105780000BF03CF96FF0050377E007F108031B7895
:10579000BB60404A3B6A134401221A70BA683F4911
:1057A0003B6A41F823203B6B5B897A8F9A4224D372
:1057B0003B6B5B897A8FD31A7B873B6B5B893A8F14
:1057C000D31A3B877A8F3B8F9A4213D23B6B1B686D
:1057D0003B633B6B002B09D12A4B40F29D62314960
:1057E0002A480BF00BF96FF0050346E03B6B5B6852
:1057F000FB6302E06FF001033FE03B6B002B0AD03C
:105800007A8F3B8F9A4206D27B8FFA6B13441B78B8
:10581000FF2B7FF4B4AD1F4B1B78002B18D01F4B10
:105820001B68FB601B4B00221A70FB68012B02D126
:105830000123FB620CE0FB68022B02D10123BB6257
:1058400006E0FB68032B03D10123BB620123FB624B
:10585000FB6A002B06D00023FB626C23FB86EC2343
:10586000BB8666E5BB6A002B06D00023BB622C23F7
:10587000FB866C23BB865CE5002318464037BD469B
:1058800080BD00BF3C1B0108C41D01089C1B010812
:10589000081E0108AC3700201C1E0108B437002088
:1058A000341E0108481E010880B58AB000AFF860B8
:1058B000B9607A603B605D4B5B683B623B6A5B6AE8
:1058C000FB617B685B68BB61FB69002B00F0A78014
:1058D000FB691B79002B00F0A2807B685B892B2B76
:1058E00040F29280BB691B78022B40F08F8000232E
:1058F00087F8273011E097F827303A6A134493F875
:105900002A2097F82730B9690B441B7F9A427FD130
:1059100097F82730013387F827303B6A93F8303007
:1059200097F827209A4203D297F82730052BE2D91F
:10593000BB695B681846FEF7EEFA0246FB691B6816
:105940009A4267D1F9697868FFF7D6FC0346002BC5
:1059500062D1374B5B78002B60D07B685B687B61E2
:10596000344B5B68FB74FB7C052B2AD1FB695B79AC
:10597000012B12D17969386AFEF750FE3B6A93F821
:10598000313003F00803002B03D0386AFEF7BEFB6A
:1059900045E0386AFFF764F841E0FB695B79032B67
:1059A00007D0FB695B79042B03D0FB695B79052B7E
:1059B00035D17969386AFEF731FE386AFFF750F859
:1059C0002DE0FB7C062B13D1FB695B79032B0BD0FD
:1059D000FB695B79012B07D0FB695B79042B03D052
:1059E000FB695B79052B03D1386AFEF775FB16E07E
:1059F000FB7C022B13D1FB695B79062B0FD17969F4
:105A0000386AFEF7B7FB0AE000BF08E000BF06E017
:105A100000BF04E000BF02E000BF00E000BF786804
:105A200003F0A6FD00BF2837BD4680BD9437002097
:105A3000AC370020B437002080B588B000AFF860E4
:105A4000B9603B601346FB71FB68002B08D15F4BCC
:105A500040F269725E495F480AF0D0FF0023B1E06E
:105A6000BB68002B08D1594B40F26A725A49594819
:105A70000AF0C4FF0023A5E04FF420724FF49A719E
:105A8000362003F093FAB861BB69002B01D10023E3
:105A900098E0BB695B89B3F59A7F06D24B4B40F225
:105AA00072724E494B480AF0A9FFFB79032B03D1D0
:105AB000BB685B79032B0DD1BB689B79002B05D1AB
:105AC0000AF0B4FF03461A46454B1A60444B1A6865
:105AD000BB681A60BB695B687B614FF49A720021F6
