:020000040800F2
:100000000000052071160008E9060008EF06000848
:10001000F5060008FB0600080107000800000000C4
:1000200000000000000000000000000007070008BA
:10003000150700080000000023070008310700082A
:10004000C1160008C1160008C1160008C116000834
:10005000C1160008C1160008C1160008C116000824
:10006000C1160008C1160008C1160008C116000814
:10007000C1160008C1160008C1160008C116000804
:10008000C1160008C1160008C1160008C1160008F4
:10009000C1160008C1160008C1160008C1160008E4
:1000A000C1160008C1160008C1160008C1160008D4
:1000B000C1160008C1160008C1160008C1160008C4
:1000C000C1160008C1160008C1160008C1160008B4
:1000D000C1160008C1160008C1160008C1160008A4
:1000E000C1160008C1160008C1160008C116000894
:1000F000C1160008C1160008C1160008C116000884
:10010000C1160008C1160008C1160008C116000873
:10011000C1160008C1160008C1160008C116000863
:10012000C1160008C1160008C1160008C116000853
:10013000C1160008C1160008C1160008C116000843
:10014000C1160008C1160008C1160008C116000833
:10015000C1160008C1160008C1160008C116000823
:10016000C1160008C1160008C1160008C116000813
:10017000C1160008C1160008C1160008C116000803
:10018000C1160008C1160008C1160008C1160008F3
:10019000C1160008C1160008C1160008C1160008E3
:1001A000C1160008C1160008C1160008C1160008D3
:1001B000C1160008C1160008C1160008C1160008C3
:0801C000C1160008C116000879
:1001C80010B5054C237833B9044B13B10448AFF389
:1001D80000800123237010BD0C00002000000000E7
:1001E8001C17000808B5034B1BB103490348AFF3BC
:1001F800008008BD00000000100000201C17000847
:1002080053B94AB9002908BF00281CBF4FF0FF3175
:100218004FF0FF3000F07AB9ADF1080C6DE904CE6B
:1002280000F006F8DDF804E0DDE9022304B07047C9
:100238002DE9F0478C460D460446089E002B51D107
:100248008A4217466DD9B2FA82FEBEF1000F0BD072
:10025800CEF1200C01FA0EF520FA0CFC02FA0EF78A
:100268004CEA050C00FA0EF44FEA174A250CBCFBC1
:10027800FAF81FFA87F90AFB18CC45EA0C4508FB7F
:1002880009F3AB420AD9ED1908F1FF3280F0238156
:10029800AB4240F22081A8F102083D44ED1AA4B215
:1002A800B5FBFAF00AFB105544EA054400FB09F9CE
:1002B800A14509D9E41900F1FF3380F00A81A1456D
:1002C80040F2078102383C44A4EB090440EA0840A4
:1002D8000021002E61D024FA0EF4002334607360EC
:1002E800BDE8F0878B4207D9002E54D0002186E85C
:1002F80021000846BDE8F087B3FA83F1002940F0F1
:100308008E80AB4202D3824200F2FA80841A65EBF7
:1003180003050120AC46002E3FD086E81010BDE84A
:10032800F08712B90127B7FBF2F7B7FA87FEBEF1DB
:10033800000F34D1EB1B3A0C1FFA87FC0121B3FBE9
:10034800F2F8250C02FB183345EA03450CFB08F3C9
:10035800AB4207D9ED1908F1FF3002D2AB4200F2E7
:10036800D1808046ED1AA3B2B5FBF2F002FB10551E
:1003780043EA05440CFB00FCA44507D9E41900F145
:10038800FF3302D2A44500F2B8801846A4EB0C044F
:1003980040EA08409DE731463046BDE8F087CEF197
:1003A800200405FA0EF307FA0EF720FA04F83A0CBF
:1003B80025FA04F448EA0308B4FBF2F14FEA1845B9
:1003C80002FB11441FFA87FC45EA044501FB0CF3C4
:1003D800AB4200FA0EF409D9ED1901F1FF3080F0B3
:1003E8008A80AB4240F2878002393D44EB1A1FFAFB
:1003F80088F5B3FBF2F002FB103345EA034500FB36
:100408000CF3AB4207D9ED1900F1FF386FD2AB42BC
:100418006DD902383D44EB1A40EA01418FE7C1F13A
:10042800200722FA07F88B4005FA01F448EA03038B
:1004380020FA07FE4FEA134CFD404EEA040EB5FBC6
:10044800FCF94FEA1E440CFB19551FFA83F844EADD
:10045800054509FB08F4AC4202FA01F200FA01FA78
:1004680008D9ED1809F1FF3043D2AC4241D9A9F1BE
:1004780002091D442D1B1FFA8EFEB5FBFCF00CFB78
:1004880010554EEA054400FB08F8A04507D9E418C2
:1004980000F1FF3529D2A04527D902381C4440EA8B
:1004A8000940A4EB0804A0FB02894C45C6464D460A
:1004B80015D312D056B1BAEB0E0364EB050404FA57
:1004C80007F7CB401F43CC40376074600021BDE87C
:1004D800F0871846F8E69046E0E6C245EAD2B8EB5F
:1004E800020E69EB03050138E4E72846D7E74046E2
:1004F80091E78146BEE7014678E702383C4445E784
:10050800084608E7A8F102083D442BE7704700BFFA
:1005180080B588B000AF07F10C0300221A605A605A
:100528009A60DA601A611F4A1E4B1B6B43F0040382
:1005380013631C4B1B6B03F00403BB60BB68194AB5
:10054800184B1B6B43F002031363164B1B6B03F032
:1005580002037B607B68002244F28101124800F0AC
:1005680009FC4FF40053FB6000233B6100237B61CF
:1005780007F10C0319460D4800F052FA44F28103C2
:10058800FB6001233B6100237B610023BB6107F112
:100598000C031946044800F043FA00BF2037BD4653
:1005A80080BD00BF0038024000040240000802403D
:1005B80080B500AF00F0D0F800F00EF8FFF7A8FF04
:1005C8008021044800F0EFFB4FF4FA6000F022F9B4
:1005D800F6E700BF0004024080B594B000AF07F111
:1005E800200330220021184601F08CF807F10C0393
:1005F80000221A605A609A60DA601A61224A224B15
:100608001B6C43F0805313641F4B1B6C03F0805327
:10061800BB60BB681D4A1D4B1B6823F4404343F471
:1006280080431360194B1B6803F440437B607B686D
:1006380002233B620123FB6210233B630023BB635D
:1006480007F12003184600F0C9FB0346002B01D030
:1006580000F01EF80F23FB6000233B6100237B6141
:100668000023BB610023FB6107F10C03002118463E
:1006780000F058FE0346002B01D000F009F800BF37
:100688005037BD4680BD00BF0038024000700040B2
:1006980080B400AF72B6FEE780B483B000AF0F4AF3
:1006A8000E4B1B6C43F0805313640C4B1B6C03F014
:1006B80080537B607B68094A084B5B6C43F480433A
:1006C8005364064B5B6C03F480433B603B6800BF9C
:1006D8000C37BD465DF8047B704700BF0038024008
:1006E80080B400AFFEE780B400AFFEE780B400AF8F
:1006F800FEE780B400AFFEE780B400AFFEE780B449
:1007080000AF00BFBD465DF8047B704780B400AF02
:1007180000BFBD465DF8047B704780B400AF00BFE2
:10072800BD465DF8047B704780B500AF00F052F815
:1007380000BF80BD80B400AF064A064BD3F88830AE
:1007480043F47003C2F8883000BFBD465DF8047BEF
:10075800704700BF00ED00E080B500AF032000F057
:100768002BF9002000F006F8FFF796FF0023184643
:1007780080BD000080B582B000AF7860124B1A6867
:10078800124B1B7819464FF47A73B3FBF1F3B2FBA3
:10079800F3F3184600F037F90346002B01D0012384
:1007A8000EE07B680F2B0AD8002279684FF0FF30E3
:1007B80000F00DF9064A7B681360002300E001236E
:1007C80018460837BD4680BD0000002008000020FC
:1007D8000400002080B400AF064B1B781A46064B75
:1007E8001B681344044A136000BFBD465DF8047BD0
:1007F800704700BF080000202800002080B400AF28
:10080800034B1B681846BD465DF8047B704700BF64
:100818002800002080B584B000AF7860FFF7EEFFB5
:10082800B8607B68FB60FB68B3F1FF3F05D0094BFC
:100838001B781A46FB681344FB6000BFFFF7DEFF16
:100848000246BB68D21AFB689A42F7D300BF10373A
:10085800BD4680BD0800002080B485B000AF786038
:100868007B6803F00703FB600B4BDB68BB60BA686F
:100878004FF6FF031340BB60FB681A02BB681A43BC
:10088800064B1343BB60044ABB68D36000BF1437F0
:10089800BD465DF8047B704700ED00E00000FA05F6
:1008A80080B400AF044BDB681B0A03F0070318464B
:1008B800BD465DF8047B704700ED00E080B483B06E
:1008C80000AF03463960FB7197F90730002B0ADB4C
:1008D8000D4997F907303A68D2B21201D2B20B44E7
:1008E80083F800230AE00949FB7903F00F03043B6E
:1008F8003A68D2B21201D2B20B441A7600BF0C3752
:10090800BD465DF8047B704700E100E000ED00E0C3
:1009180080B489B000AFF860B9607A60FB6803F012
:100928000703FB61FB69C3F10703042B28BF0423FA
:10093800BB61FB690433062B02D9FB69033B00E06A
:1009480000237B610122BB6902FA03F35A1EBB68CC
:100958001A407B699A4001217B6901FA03F3591E09
:100968007B680B40134318462437BD465DF8047B6B
:100978007047000080B582B000AF78607B68013BAB
:10098800B3F1807F01D301230FE00A4A7B68013B62
:1009980053600F214FF0FF30FFF790FF054B002207
:1009A8009A60044B07221A60002318460837BD4690
:1009B80080BD00BF10E000E080B582B000AF786075
:1009C8007868FFF749FF00BF0837BD4680BD80B58E
:1009D80086B000AF0346B9607A60FB7300237B6181
:1009E800FFF75EFF78617A68B9687869FFF790FF6A
:1009F800024697F90F3011461846FFF75FFF00BF10
:100A08001837BD4680BD80B582B000AF7860786881
:100A1800FFF7B0FF034618460837BD4680BD000003
:100A280080B489B000AF786039600023FB6100238F
:100A38007B6100233B610023BB610023FB6175E1FF
:100A48000122FB6902FA03F37B613B681A687B6940
:100A580013403B613A697B699A4240F064813B6884
:100A68005B68012B0BD03B685B68022B07D03B68A7
:100A78005B68112B03D03B685B68122B30D17B6815
:100A88009B68BB61FB695B00032202FA03F3DB434B
:100A9800BA691340BB613B68DA68FB695B0002FA1C
:100AA80003F3BA691343BB617B68BA699A607B68D0
:100AB8005B68BB610122FB6902FA03F3DB43BA6995
:100AC8001340BB613B685B681B0903F00102FB69CB
:100AD80002FA03F3BA691343BB617B68BA695A60C7
:100AE8007B68DB68BB61FB695B00032202FA03F3E6
:100AF800DB43BA691340BB613B689A68FB695B00DA
:100B080002FA03F3BA691343BB617B68BA69DA6016
:100B18003B685B68022B03D03B685B68122B23D1D0
:100B2800FB69DA087B68083253F82230BB61FB693D
:100B380003F007039B000F2202FA03F3DB43BA69B1
:100B48001340BB613B681A69FB6903F007039B000C
:100B580002FA03F3BA691343BB61FB69DA087B68DD
:100B68000832B96943F822107B681B68BB61FB69CE
:100B78005B00032202FA03F3DB43BA691340BB614B
:100B88003B685B6803F00302FB695B0002FA03F34E
:100B9800BA691343BB617B68BA691A603B685B68D2
:100BA80003F08053002B00F0BE80654A644B5B6CF9
:100BB80043F480435364624B5B6C03F48043FB60F3
:100BC800FB68604AFB699B08023352F82330BB611B
:100BD800FB6903F003039B000F2202FA03F3DB43D4
:100BE800BA691340BB617B68574A934237D07B6828
:100BF800564A934231D07B68554A93422BD07B6842
:100C0800544A934225D07B68534A93421FD07B684D
:100C1800524A934219D07B68514A934213D07B6859
:100C2800504A93420DD07B684F4A934207D07B6865
:100C38004E4A934201D1092312E00A2310E0082307
:100C48000EE007230CE006230AE0052308E004234E
:100C580006E0032304E0022302E0012300E000236E
:100C6800FA6902F0030292009340BA691343BB6128
:100C78003449FB699B080233BA6941F823203C4B8D
:100C88001B68BB613B69DB43BA691340BB613B68C6
:100C98005B6803F48033002B03D0BA693B691343C4
:100CA800BB61334ABB691360314B5B68BB613B690D
:100CB800DB43BA691340BB613B685B6803F40033EC
:100CC800002B03D0BA693B691343BB61284ABB694F
:100CD8005360274B9B68BB613B69DB43BA69134090
:100CE800BB613B685B6803F48013002B03D0BA69CF
:100CF8003B691343BB611E4ABB6993601C4BDB68AD
:100D0800BB613B69DB43BA691340BB613B685B6805
:100D180003F40013002B03D0BA693B691343BB618A
:100D2800134ABB69D360FB690133FB61FB690F2B75
:100D38007FF686AE00BF2437BD465DF8047B70475A
:100D48000038024000380140000002400004024020
:100D580000080240000C024000100240001402404B
:100D680000180240001C02400020024000240240FB
:100D7800003C014080B483B000AF78600B467B80B4
:100D880013467B707B78002B03D07A887B689A6146
:100D980003E07B881A047B689A6100BF0C37BD4664
:100DA8005DF8047B704780B485B000AF78600B466F
:100DB8007B807B685B69FB607A88FB6813401A0458
:100DC800FB68D9437B880B401A437B689A6100BF54
:100DD8001437BD465DF8047B7047000080B586B0C7
:100DE80000AF78600023FB757B68002B01D10123DD
:100DF80091E27B681B6803F00103002B00F08780F9
:100E0800964B9B6803F00C03042B0CD0934B9B6808
:100E180003F00C03082B12D1904B5B6803F480039A
:100E2800B3F5800F0BD18D4B1B6803F40033002BF7
:100E38006CD07B685B68002B68D101236BE27B6810
:100E48005B68B3F5803F06D1844A844B1B6843F442
:100E5800803313602EE07B685B68002B0CD17F4ADF
:100E68007E4B1B6823F4803313607C4A7B4B1B68E2
:100E780023F4802313601DE07B685B68B3F5A02F23
:100E88000CD1764A754B1B6843F480231360734A70
:100E9800724B1B6843F4803313600BE06F4A6F4B4F
:100EA8001B6823F4803313606C4A6C4B1B6823F473
:100EB800802313607B685B68002B13D0FFF79EFCD0
:100EC800386108E0FFF79AFC02463B69D31A642BA5
:100ED80001D903231FE2614B1B6803F40033002B85
:100EE800F0D014E0FFF78AFC386108E0FFF786FCD1
:100EF80002463B69D31A642B01D903230BE2574BF3
:100F08001B6803F40033002BF0D100E000BF7B68BE
:100F18001B6803F00203002B69D0504B9B6803F059
:100F28000C03002B0BD04D4B9B6803F00C03082BD4
:100F38001CD14A4B5B6803F48003002B16D1474B46
:100F48001B6803F00203002B05D07B68DB68012BCC
:100F580001D00123DFE14149404B1B6823F0F8022F
:100F68007B681B69DB0013430B6040E07B68DB6830
:100F7800002B23D0394A394B1B6843F00103136017
:100F8800FFF73CFC386108E0FFF738FC02463B6994
:100F9800D31A022B01D90323BDE1304B1B6803F0A0
:100FA8000203002BF0D02D492C4B1B6823F0F802CC
:100FB8007B681B69DB0013430B6018E0274A274B4B
:100FC8001B6823F001031360FFF718FC386108E081
:100FD800FFF714FC02463B69D31A022B01D90323FD
:100FE80099E11E4B1B6803F00203002BF0D17B68CC
:100FF8001B6803F00803002B38D07B685B69002B63
:1010080019D0164A154B5B6F43F001035367FFF77E
:10101800F5FB386108E0FFF7F1FB02463B69D31A9C
:10102800022B01D9032376E10C4B5B6F03F002031B
:10103800002BF0D01AE0094A084B5B6F23F001033C
:101048005367FFF7DBFB38610AE0FFF7D7FB02467F
:101058003B69D31A022B03D903235CE10038024011
:10106800914B5B6F03F00203002BEED17B681B688A
:1010780003F00403002B00F0A4808B4B1B6C03F0DF
:101088008053002B0DD1884A874B1B6C43F080534B
:101098001364854B1B6C03F08053BB60BB68012352
:1010A800FB75824B1B6803F48073002B18D17F4AB1
:1010B8007E4B1B6843F480731360FFF79FFB386116
:1010C80008E0FFF79BFB02463B69D31A642B01D962
:1010D800032320E1754B1B6803F48073002BF0D0C9
:1010E8007B689B68012B06D16F4A6F4B1B6F43F0DF
:1010F800010313672DE07B689B68002B0CD16A4ABB
:10110800694B1B6F23F001031367674A664B1B6F1C
:1011180023F0040313671CE07B689B68052B0CD144
:10112800614A614B1B6F43F0040313675E4A5E4BD1
:101138001B6F43F0010313670BE05B4A5A4B1B6FAD
:1011480023F001031367584A574B1B6F23F004031E
:1011580013677B689B68002B15D0FFF74FFB38613E
:101168000AE0FFF74BFB02463B69D31A41F288328B
:10117800934201D90323CEE04B4B1B6F03F00203CC
:10118800002BEED014E0FFF739FB38610AE0FFF7D7
:1011980035FB02463B69D31A41F28832934201D9A2
:1011A8000323B8E0404B1B6F03F00203002BEED182
:1011B800FB7D012B05D13C4A3B4B1B6C23F0805334
:1011C80013647B689B69002B00F0A480364B9B68F6
:1011D80003F00C03082B6BD07B689B69022B49D169
:1011E800314A314B1B6823F080731360FFF706FB0D
:1011F800386108E0FFF702FB02463B69D31A022B6D
:1012080001D9032387E0284B1B6803F00073002BE8
:10121800F0D125497B68DA697B681B6A1A437B68C9
:101228005B6A9B011A437B689B6A5B08013B1B0452
:101238001A437B68DB6A1B06134343F000534B6079
:10124800194A194B1B6843F080731360FFF7D6FAED
:10125800386108E0FFF7D2FA02463B69D31A022B3D
:1012680001D9032357E0104B1B6803F00073002BD0
:10127800F0D04FE00C4A0C4B1B6823F080731360CE
:10128800FFF7BCFA386108E0FFF7B8FA02463B6995
:10129800D31A022B01D903233DE0034B1B6803F04B
:1012A8000073002BF0D135E0003802400070004098
:1012B8001B4B5B68FB607B689B69012B28D0FB6834
:1012C80003F480027B68DB699A4221D1FB6803F052
:1012D8003F027B681B6A9A421AD1FA6847F6C073C4
:1012E80013407A68526A9201934211D1FB6803F461
:1012F80040327B689B6A5B08013B1B049A4207D11A
:10130800FB6803F070627B68DB6A1B069A4201D0B7
:10131800012300E0002318461837BD4680BD00BFF2
:101328000038024080B584B000AF7860396000238F
:10133800FB607B68002B01D10123D0E06A4B1B685E
:1013480003F00F023B689A4210D26749664B1B684C
:1013580023F00F023B6813430B60634B1B6803F0D9
:101368000F023B689A4201D00123B8E07B681B68F2
:1013780003F00203002B20D07B681B6803F00403F2
:10138800002B05D0594A594B9B6843F4E0539360AE
:101398007B681B6803F00803002B05D0534A534BA6
:1013A8009B6843F4604393605049504B9B6823F01B
:1013B800F0027B689B6813438B607B681B6803F0B3
:1013C8000103002B40D07B685B68012B07D1474B9A
:1013D8001B6803F40033002B15D101237FE07B68E1
:1013E8005B68022B07D1414B1B6803F00073002B8D
:1013F80009D1012373E03D4B1B6803F00203002B66
:1014080001D101236BE03949384B9B6823F0030273
:101418007B685B6813438B60FFF7F0F9F8600AE0BC
:10142800FFF7ECF90246FB68D31A41F2883293427F
:1014380001D9032353E02D4B9B6803F00C027B6812
:101448005B689B009A42EBD1274B1B6803F00F02A5
:101458003B689A4210D92449234B1B6823F00F029A
:101468003B6813430B60204B1B6803F00F023B687B
:101478009A4201D0012332E07B681B6803F0040321
:10148800002B08D01949194B9B6823F4E0527B685C
:10149800DB6813438B607B681B6803F00803002B31
:1014A80009D01249114B9B6823F460427B681B6981
:1014B800DB0013438B6000F021F801460B4B9B685F
:1014C8001B0903F00F030A4AD35C21FA03F3094A04
:1014D8001360094B1B681846FFF74CF900231846A0
:1014E8001037BD4680BD00BF003C024000380240B6
:1014F8003417000800000020040000202DE9F04FF8
:1015080087B000AF0022FA6000227A610022BA6038
:1015180000223A61514A926802F00C02042A07D06C
:10152800082A08D0002A40F090804D4B3B618FE09C
:101538004C4B3B618CE0494A526802F03F02FA602A
:10154800464A526802F48002002A23D0434B5B6863
:101558009B094FF0000440F2FF114FF0000203EA2C
:10156800010304EA02043F4A02FB04F1002202FBE1
:1015780003F20A443B49A3FB010153181946FB68CF
:101588004FF000041A462346FEF73AFE03460C467F
:101598007B614CE0314A5268920911464FF00002D3
:1015A80040F2FF154FF0000605EA010506EA0206BB
:1015B800294632464FEA421B4BEAD16B4FEA411AA1
:1015C80051465A46AA46B34655465E464D1B62EBFF
:1015D800060629463246940144EA91648B015B1A57
:1015E80064EB02044FEAC40949EA53794FEAC30895
:1015F80043464C4655465E46ED1846EB04062B46D8
:101608003446A2027A607A6842EA93527A609B0270
:101618003B6097E8180018462146FB684FF0000425
:101628001A462346FEF7ECFD03460C467B610B4B3E
:101638005B681B0C03F0030301335B00BB607A6932
:10164800BB68B2FBF3F33B6102E0054B3B6100BFB3
:101658003B6918461C37BD46BDE8F08F003802408C
:101668000024F40040787D01DFF834D00D480E499D
:101678000E4A002302E0D458C4500433C4188C42E4
:10168800F9D30B4A0B4C002301E013600432A24249
:10169800FBD3FFF74FF800F011F8FEF789FF70470A
:1016A80000000520000000200C000020541700084E
:1016B8000C0000202C000020FEE7000070B50D4E45
:1016C8000D4CA41BA4100025A54209D10B4E0C4CAF
:1016D80000F020F8A41BA4100025A54205D170BD78
:1016E80056F8253098470135EEE756F825309847E3
:1016F8000135F2E74C1700084C1700084C17000892
:101708005017000802440346934200D1704703F87B
:10171800011BF9E7F8B500BFF8BC08BC9E46704746
:0C172800F8B500BFF8BC08BC9E46704736
:10173400000000000000000001020304060708097D
:08174400F4EAFF7F0100000040
:04174C00ED010008A3
:04175000C9010008C3
:0C1754000024F400100000000100000060
:040000050800167168
:00000001FF
