:020000040800F2
:100000000000052061440008A90E0008AF0E00089A
:10001000B50E0008BB0E0008C10E0008000000006D
:10002000000000000000000000000000C70E0008F3
:10003000D50E000800000000E30E0008F10E0008D5
:10004000B1440008B1440008B1440008B1440008BC
:10005000B1440008B1440008B1440008B1440008AC
:10006000B1440008B1440008B1440008B14400089C
:10007000B1440008B1440008B1440008B14400088C
:10008000B1440008B1440008B1440008B14400087C
:10009000B1440008B1440008B1440008B14400086C
:1000A000B1440008B1440008B1440008B14400085C
:1000B000B1440008B1440008B1440008B14400084C
:1000C000B1440008B1440008B1440008B14400083C
:1000D000B1440008B1440008B1440008B14400082C
:1000E000B1440008B1440008B1440008B14400081C
:1000F000B1440008B1440008B1440008B14400080C
:10010000B1440008B1440008B1440008B1440008FB
:10011000B1440008B1440008B1440008B1440008EB
:10012000FD0E0008B1440008B1440008B1440008C5
:10013000B1440008B1440008B1440008B1440008CB
:10014000B1440008B1440008B1440008B1440008BB
:10015000B1440008B1440008B1440008B1440008AB
:10016000B1440008B1440008B1440008B14400089B
:10017000B1440008B1440008B1440008B14400088B
:10018000B1440008B1440008B1440008B14400087B
:10019000B1440008B1440008B1440008B14400086B
:1001A000B1440008B1440008B1440008B14400085B
:1001B000B1440008B1440008B1440008B14400084B
:0801C000B1440008B14400083D
:1001D00010B5054C237833B9044B13B10448AFF381
:1001E00000800123237010BD70000020000000007B
:1001F000544D000808B5034B1BB103490348AFF346
:10020000008008BD0000000074000020544D00086C
:1002100001F0FF01102A2BDB10F0070F08D010F8B7
:10022000013B013A8B422DD010F0070F42B3F6D1BB
:10023000F0B441EA012141EA014122F007047FF0D4
:1002400000070023F0E80256083C85EA010586EA2B
:10025000010685FA47F5A3FA87F586FA47F6A5FA67
:1002600087F68EB9EED1F0BC01F0FF0102F0070273
:1002700032B110F8013B013A83EA010313B1F8D11E
:100280000020704701387047002D06BF35460338FF
:10029000073815F0010F07D1013015F4807F02BF38
:1002A000013015F4C03F0130F0BC0138704700BF89
:1002B00053B94AB9002908BF00281CBF4FF0FF31CD
:1002C0004FF0FF3000F07AB9ADF1080C6DE904CEC3
:1002D00000F006F8DDF804E0DDE9022304B0704721
:1002E0002DE9F0478C460D460446089E002B51D15F
:1002F0008A4217466DD9B2FA82FEBEF1000F0BD0CA
:10030000CEF1200C01FA0EF520FA0CFC02FA0EF7E1
:100310004CEA050C00FA0EF44FEA174A250CBCFB18
:10032000FAF81FFA87F90AFB18CC45EA0C4508FBD6
:1003300009F3AB420AD9ED1908F1FF3280F02381AD
:10034000AB4240F22081A8F102083D44ED1AA4B26C
:10035000B5FBFAF00AFB105544EA054400FB09F925
:10036000A14509D9E41900F1FF3380F00A81A145C4
:1003700040F2078102383C44A4EB090440EA0840FB
:100380000021002E61D024FA0EF400233460736043
:10039000BDE8F0878B4207D9002E54D0002186E8B3
:1003A00021000846BDE8F087B3FA83F1002940F048
:1003B0008E80AB4202D3824200F2FA80841A65EB4F
:1003C00003050120AC46002E3FD086E81010BDE8A2
:1003D000F08712B90127B7FBF2F7B7FA87FEBEF133
:1003E000000F34D1EB1B3A0C1FFA87FC0121B3FB41
:1003F000F2F8250C02FB183345EA03450CFB08F321
:10040000AB4207D9ED1908F1FF3002D2AB4200F23E
:10041000D1808046ED1AA3B2B5FBF2F002FB105575
:1004200043EA05440CFB00FCA44507D9E41900F19C
:10043000FF3302D2A44500F2B8801846A4EB0C04A6
:1004400040EA08409DE731463046BDE8F087CEF1EE
:10045000200405FA0EF307FA0EF720FA04F83A0C16
:1004600025FA04F448EA0308B4FBF2F14FEA184510
:1004700002FB11441FFA87FC45EA044501FB0CF31B
:10048000AB4200FA0EF409D9ED1901F1FF3080F00A
:100490008A80AB4240F2878002393D44EB1A1FFA52
:1004A00088F5B3FBF2F002FB103345EA034500FB8D
:1004B0000CF3AB4207D9ED1900F1FF386FD2AB4214
:1004C0006DD902383D44EB1A40EA01418FE7C1F192
:1004D000200722FA07F88B4005FA01F448EA0303E3
:1004E00020FA07FE4FEA134CFD404EEA040EB5FB1E
:1004F000FCF94FEA1E440CFB19551FFA83F844EA35
:10050000054509FB08F4AC4202FA01F200FA01FACF
:1005100008D9ED1809F1FF3043D2AC4241D9A9F115
:1005200002091D442D1B1FFA8EFEB5FBFCF00CFBCF
:1005300010554EEA054400FB08F8A04507D9E41819
:1005400000F1FF3529D2A04527D902381C4440EAE2
:100550000940A4EB0804A0FB02894C45C6464D4661
:1005600015D312D056B1BAEB0E0364EB050404FAAE
:1005700007F7CB401F43CC40376074600021BDE8D3
:10058000F0871846F8E69046E0E6C245EAD2B8EBB6
:10059000020E69EB03050138E4E72846D7E7404639
:1005A00091E78146BEE7014678E702383C4445E7DB
:1005B000084608E7A8F102083D442BE7704700BF52
:1005C00080B584B000AF3B4600221A605A609A6042
:1005D000DA602F4B2F4A1A602D4B00225A602C4BA9
:1005E00000229A602A4B01221A61294B01229A614A
:1005F000274B002283F82020254B0022DA62244B6F
:10060000254A9A62224B0022DA60214B0322DA61EA
:100610001F4B012283F830201D4B01225A611C48D8
:1006200001F00CF80346002B01D000F015FC1B4B29
:100630003B6001237B600723BB603B46194614489F
:1006400001F058F90346002B01D000F005FC04230B
:100650003B6002237B603B4619460D4801F04AF996
:100660000346002B01D000F0F7FB05233B6003237A
:100670007B603B461946064801F03CF90346002BD7
:1006800001D000F0E9FB00BF1037BD4680BD00BFC0
:1006900098000020002001400100000F120000100F
:1006A00080B58AB000AF786007F1140300221A60A9
:1006B0005A609A60DA601A617B681B682D4A93421F
:1006C00053D12D4A2C4B5B6C43F4807353642A4BFB
:1006D0005B6C03F480733B613B69274A264B1B6BC1
:1006E00043F001031363244B1B6B03F00103FB6016
:1006F000FB6830237B610323BB610023FB6107F1AF
:10070000140319461D4802F041F81D4B1D4A1A609A
:100710001B4B00225A601A4B00229A60184B002291
:10072000DA60174B4FF480621A61154B4FF4805218
:100730005A61134B4FF480429A61114B4FF480720F
:10074000DA610F4B00221A620D4B00225A620C48EC
:1007500001F0A6FC0346002B01D000F07DFB7B6876
:10076000074A9A63064A7B68936300BF2837BD46F1
:1007700080BD00BF00200140003802400000024060
:10078000E00000201064024080B582B000AF0C4A47
:100790000B4B1B6B43F480031363094B1B6B03F47C
:1007A00080037B607B6800220021382001F041FC3F
:1007B000382001F05AFC00BF0837BD4680BD00BF9D
:1007C0000038024080B58AB000AF07F11403002260
:1007D0001A605A609A60DA601A613B4A3A4B1B6BA6
:1007E00043F010031363384B1B6B03F010033B61A2
:1007F0003B69354A344B1B6B43F004031363324BA4
:100800001B6B03F00403FB60FB682F4A2E4B1B6B32
:1008100043F0200313632C4B1B6B03F02003BB60DE
:10082000BB68294A284B1B6B43F001031363264B1B
:100830001B6B03F001037B607B68234A224B1B6B1D
:1008400043F002031363204B1B6B03F002033B6076
:100850003B6800224DF280411C4802F041F9002221
:100860004FF489411A4802F03BF94FF400537B6181
:100870000023BB610023FB6107F1140319461548EF
:1008800001F084FF4DF280437B610123BB610023B3
:10089000FB6100233B6207F1140319460B4801F08A
:1008A00075FF4FF489437B610123BB610023FB612A
:1008B00000233B6207F114031946054801F066FF67
:1008C00000BF2837BD4680BD0038024000100240FE
:1008D00000040240000802402DE9F04184B000AF5E
:1008E000786039606A4690463868421EFA6002466F
:1008F00011464FF00002D60046EA5176CD0002467E
:1009000011464FF00002D40044EA5174CB00034674
:100910000733DB08DB00ADEB030D6B460033BB6038
:10092000BB687A680649184603F0F6FDBB681846AE
:1009300000F024F8C54600BF1037BD46BDE8F08181
:100940006C4D000880B500AF0021002000F02BF8AE
:10095000094800F013F80021012000F024F80648AF
:1009600000F00CF84FF47A7000F046FE012000F021
:100970006DF800BF80BD00BF704D000880B582B02B
:1009800000AF786007E07B681B78184600F0D0F86D
:100990007B6801337B607B681B78002BF3D100BF41
:1009A0000837BD4680BD80B584B000AF03460A4617
:1009B000FB711346BB71FB79002B02D0012B0FD0CA
:1009C0001DE0802000F042F8BB79FB7302E01420A8
:1009D00000F03CF8FB7B5A1EFA73002BF7D10EE0B7
:1009E000C02000F033F8BB79BB7302E0142000F0A4
:1009F0002DF8BB7B5A1EBA73002BF7D100BF00BF86
:100A00001037BD4680BD000080B500AF00224FF416
:100A100080610D4802F064F8052000F0EDFD012230
:100A20004FF48061084802F05BF8052000F0E4FD17
:100A300000224FF48061044802F052F8052000F0D3
:100A4000DBFD00BF80BD00BF0010024080B582B05A
:100A500000AF0346FB7100228021334802F040F8CA
:100A6000FB79DB09DBB21A464FF480612F4802F0B4
:100A700037F8FB799B09DBB203F00103DBB21A46BE
:100A80004FF40041284802F02BF8FB795B09DBB2F8
:100A900003F00103DBB21A464FF48041224802F012
:100AA0001FF8FB791B09DBB203F00103DBB21A4626
:100AB0004FF480511C4802F013F8FFF7A5FFFB79B3
:100AC000DB08DBB203F00103DBB21A464FF48061AE
:100AD000164802F005F8FB799B08DBB203F001032E
:100AE000DBB21A464FF400410F4801F0F9FFFB79E1
:100AF0005B08DBB203F00103DBB21A464FF480411E
:100B0000094801F0EDFFFB7903F00103DBB21A465F
:100B10004FF48051044801F0E3FFFFF775FF00BF79
:100B20000837BD4680BD00BF0010024000040240EF
:100B300080B582B000AF0346FB71012280213348AB
:100B400001F0CEFFFB79DB09DBB21A464FF480617E
:100B50002F4801F0C5FFFB799B09DBB203F00103CD
:100B6000DBB21A464FF40041284801F0B9FFFB7987
:100B70005B09DBB203F00103DBB21A464FF480419C
:100B8000224801F0ADFFFB791B09DBB203F0010342
:100B9000DBB21A464FF480511C4801F0A1FFFFF769
:100BA00033FFFB79DB08DBB203F00103DBB21A464B
:100BB0004FF48061164801F093FFFB799B08DBB28C
:100BC00003F00103DBB21A464FF400410F4801F075
:100BD00087FFFB795B08DBB203F00103DBB21A4647
:100BE0004FF48041094801F07BFFFB7903F00103DA
:100BF000DBB21A464FF48051044801F071FFFFF751
:100C000003FF00BF0837BD4680BD00BF0010024093
:100C10000004024080B582B000AF03460A46FB7173
:100C20001346BB710F2000F0E7FC2020FFF70EFFFA
:100C3000FFF7EAFEFFF7E8FEFFF7E6FE2820FFF7E2
:100C400005FF2820FFF702FF2820FFF7FFFE012005
:100C5000FFF7FCFE0220FFF7F9FEFB795B005BB2B9
:100C600043F00C035AB297F9063013435BB2DBB280
:100C70001846FFF7EBFE00BF0837BD4680BD0000F9
:100C800080B582B000AF00F059FC00F089F8FFF7A2
:100C900099FDFFF779FD00F079F900F0ABFA00F06B
:100CA000F7FA00F039FAFFF78BFC01210120FFF77A
:100CB000B1FF0421314802F045FC08212F4802F021
:100CC00041FC0C212D4802F03DFC00212C4802F093
:100CD00039FC04212A4802F035FC0021294802F0A1
:100CE00031FC0021284802F02DFC03222749284826
:100CF00000F0E8FCFFF726FE00210020FFF753FE7E
:100D00002448FFF73BFE1923FB712EE0012101204F
:100D1000FFF749FEFB7901211846FFF7DDFD1E486C
:100D2000FFF72CFE154B1B68FA799A63134B1B686F
:100D3000FA79DA63114B1B68FA791A64104B1B6855
:100D4000FA795A630E4B1B68FA799A630D4B1B684C
:100D5000FA795A630C4B1B68FA795A634FF47A702C
:100D600000F04AFCFB790A33FB71FB797D2BCDD96E
:100D700080210A4801F0CDFEC5E700BF4C010020EC
:100D8000E4010020980100203002002040010020F2
:100D900098000020804D00088C4D0008000402409F
:100DA00080B594B000AF07F120033022002118462F
:100DB00003F0AAFB07F10C0300221A605A609A6044
:100DC000DA601A61224A224B1B6C43F08053136491
:100DD0001F4B1B6C03F08053BB60BB681D4A1D4B4F
:100DE0001B6823F4404343F480431360194B1B6892
:100DF00003F440437B607B6802233B620123FB6278
:100E000010233B630023BB6307F12003184601F066
:100E10009BFE0346002B01D000F01EF80F23FB6061
:100E200000233B6100237B610023BB610023FB6146
:100E300007F10C030021184602F02AF90346002BA3
:100E400001D000F009F800BF5037BD4680BD00BF9B
:100E5000003802400070004080B400AF72B6FEE778
:100E600080B483B000AF0F4A0E4B1B6C43F080532D
:100E700013640C4B1B6C03F080537B607B68094A46
:100E8000084B5B6C43F480435364064B5B6C03F488
:100E900080433B603B6800BF0C37BD465DF8047B78
:100EA000704700BF0038024080B400AFFEE780B456
:100EB00000AFFEE780B400AFFEE780B400AFFEE70E
:100EC00080B400AFFEE780B400AF00BFBD465DF860
:100ED000047B704780B400AF00BFBD465DF8047B63
:100EE000704780B400AF00BFBD465DF8047B70471B
:100EF00080B500AF00F060FB00BF80BD80B500AFE3
:100F0000024801F0DBF900BF80BD00BFE000002017
:100F100080B584B000AF7860114B1B68002B02D104
:100F20000F4B104A1A600E4B1B68FB600C4B1A6883
:100F30007B6813446A46934207D903F0BBFA024622
:100F40000C2313604FF0FF3306E0054B1A687B68F3
:100F50001344034A1360FB6818461037BD4680BD32
:100F60008C0000208402002080B400AF064A064BAB
:100F7000D3F8883043F47003C2F8883000BFBD4610
:100F80005DF8047B704700BF00ED00E080B59AB0CB
:100F900000AF07F1580300221A605A609A60DA60C5
:100FA00007F14C0300221A605A609A6007F130037F
:100FB00000221A605A609A60DA601A615A619A6176
:100FC0003B1D2C220021184603F09EFA504B514A3B
:100FD0001A604F4B40F23F125A604D4B00229A600C
:100FE0004B4B40F2E732DA60494B00221A61484B22
:100FF00000225A61464B00229A61454802F0EAF904
:101000000346002B01D0FFF727FF4FF48053BB6549
:1010100007F1580319463E4802F09EFC0346002B98
:1010200001D0FFF719FF3A4802F02BFA0346002BD4
:1010300001D0FFF711FF0023FB6400233B65002371
:101040007B6507F14C031946314803F0FDF8034670
:10105000002B01D0FFF700FF60233B6300237B637D
:101060000023BB630023FB6300233B6400237B64FA
:101070000023BB6407F1300304221946244802F020
:101080005BFB0346002B01D0FFF7E6FE07F13003C0
:10109000082219461E4802F04FFB0346002B01D0E0
:1010A000FFF7DAFE07F130030C221946184802F068
:1010B00043FB0346002B01D0FFF7CEFE00237B60ED
:1010C0000023BB600023FB6000233B6100237B61A6
:1010D0004FF40053BB610023FB6100233B624FF0E0
:1010E00000737B620023BB620023FB623B1D194639
:1010F000074803F037F90346002B01D0FFF7ACFE99
:10110000034800F06FF900BF6837BD4680BD00BFDF
:101110004C0100200004014080B58CB000AF07F105
:10112000200300221A605A609A60DA603B1D002298
:101130001A605A609A60DA601A615A619A612B4BA0
:101140002B4A1A60294B40F23F125A60274B00226B
:101150009A60264B40F2E732DA60244B00221A6193
:10116000224B00229A61214802F034F90346002BF9
:1011700001D0FFF771FE4FF480533B6207F120036B
:1011800019461A4802F0E8FB0346002B01D0FFF78E
:1011900063FE164802F075F90346002B01D0FFF7F5
:1011A0005BFE60237B600023BB600023FB600023A9
:1011B0007B613B1D002219460C4802F0BDFA034634
:1011C000002B01D0FFF748FE3B1D042219460748BB
:1011D00002F0B2FA0346002B01D0FFF73DFE0348B0
:1011E00000F000F900BF3037BD4680BDE4010020AB
:1011F0000040014080B588B000AF3B1D00221A605E
:101200005A609A60DA601A615A619A611E4B1F4AED
:101210001A601D4B40F23F125A601B4B00229A602D
:10122000194B40F2E732DA60174B00221A61164B75
:1012300000229A61144802F0CDF80346002B01D039
:10124000FFF70AFE104802F01CF90346002B01D0FC
:10125000FFF702FE60237B600023BB600023FB607E
:1012600000237B613B1D00221946074802F064FA07
:101270000346002B01D0FFF7EFFD034800F0B2F862
:1012800000BF2037BD4680BD98010020001C0040F3
:1012900080B588B000AF3B1D00221A605A609A608A
:1012A000DA601A615A619A611E4B1F4A1A601D4B1F
:1012B00040F23F125A601B4B00229A60194B40F2D9
:1012C000E732DA60174B00221A61164B00229A614E
:1012D000144802F07FF80346002B01D0FFF7BCFD55
:1012E000104802F0CEF80346002B01D0FFF7B4FD02
:1012F00060237B600023BB600023FB6000237B61D5
:101300003B1D00221946074802F016FA0346002B3F
:1013100001D0FFF7A1FD034800F064F800BF2037BB
:10132000BD4680BD300200200020004080B487B060
:1013300000AF78607B681B68254A93420CD1254A30
:10134000244B5B6C43F002035364224B5B6C03F051
:1013500002037B617B6934E07B681B681E4A934211
:101360000CD11C4A1B4B5B6C43F480335364194B08
:101370005B6C03F480333B613B6922E07B681B6854
:10138000164A93420CD1134A124B1B6C43F0800354
:101390001364104B1B6C03F08003FB60FB6810E0D0
:1013A0007B681B680E4A93420BD10A4A094B1B6C9F
:1013B00043F480731364074B1B6C03F48073BB60AE
:1013C000BB6800BF1C37BD465DF8047B704700BF9B
:1013D000000401400038024000400140001C004071
:1013E0000020004080B58CB000AF786007F11C038E
:1013F00000221A605A609A60DA601A617B681B6882
:10140000454A93421DD1454A444B1B6B43F00403AC
:101410001363424B1B6B03F00403BB61BB694FF4C6
:101420006073FB6102233B6200237B620023BB628B
:101430000323FB6207F11C031946394801F0A6F9A2
:1014400065E07B681B68374A93421CD1334A334BB3
:101450001B6B43F010031363304B1B6B03F0100343
:101460007B617B696023FB6102233B6200237B621B
:101470000023BB620323FB6207F11C0319462A48C1
:1014800001F084F943E07B681B68284A93421CD131
:10149000224A224B1B6B43F0010313631F4B1B6B50
:1014A00003F001033B613B694023FB6102233B6284
:1014B00000237B620023BB620923FB6207F11C034C
:1014C00019461B4801F062F921E07B681B68194A44
:1014D00093421CD1114A114B1B6B43F02003136341
:1014E0000E4B1B6B03F02003FB60FB684FF4007393
:1014F000FB6102233B6200237B620023BB62092362
:10150000FB6207F11C0319460B4801F03FF900BFCD
:101510003037BD4680BD00BF0004014000380240A6
:10152000000802400040014000100240001C004042
:1015300000000240002000400014024080B500AFCF
:10154000032000F06BFD002000F006F8FFF788FC98
:101550000023184680BD000080B582B000AF7860DF
:10156000124B1A68124B1B7819464FF47A73B3FB6F
:10157000F1F3B2FBF3F3184600F085FD0346002BB0
:1015800001D001230EE07B680F2B0AD80022796876
:101590004FF0FF3000F04DFD064A7B6813600023DA
:1015A00000E0012318460837BD4680BD000000203A
:1015B000080000200400002080B400AF064B1B7818
:1015C0001A46064B1B681344044A136000BFBD460D
:1015D0005DF8047B704700BF080000207C020020FB
:1015E00080B400AF034B1B681846BD465DF8047B12
:1015F000704700BF7C02002080B584B000AF7860E7
:10160000FFF7EEFFB8607B68FB60FB68B3F1FF3F5C
:1016100005D0094B1B781A46FB681344FB6000BFDA
:10162000FFF7DEFF0246BB68D21AFB689A42F7D387
:1016300000BF1037BD4680BD0800002080B584B0D3
:1016400000AF78600023FB737B68002B01D101237E
:1016500031E07B681B6C002B09D17868FFF720F81C
:101660007B6800225A647B68002283F83C207B68F8
:101670001B6C03F01003002B16D17B681A6C104B07
:10168000134043F002027B681A64786800F07CFA29
:101690007B6800225A647B681B6C23F0030343F0D1
:1016A00001027B681A6401E00123FB737B6800225E
:1016B00083F83C20FB7B18461037BD4680BD00BF39
:1016C000FDEEFFFF80B586B000AFF860B9607A60CC
:1016D00000237B61FB6893F83C30012B01D102238E
:1016E000D4E0FB68012283F83C20FB681B689B6800
:1016F00003F00103012B18D0FB681B68FA6812681D
:10170000926842F001029A60624B1B68624AA2FB37
:1017100003239A0C13465B0013447B6102E07B6950
:10172000013B7B617B69002BF9D1FB681B689B68DF
:1017300003F00103012B40F09C80FB681A6C574BAF
:10174000134043F48072FB681A64FB681B685B6893
:1017500003F48063002B07D0FB681B6C23F4405319
:1017600043F48052FB681A64FB681B6C03F48053DB
:10177000B3F5805F06D1FB685B6C23F00602FB6863
:101780005A6402E0FB6800225A64FB68002283F876
:101790003C20FB689B6B424ADA63FB689B6B414AC7
:1017A0001A64FB689B6B404ADA64FB681B686FF045
:1017B00022021A60FB681B68FA681268526842F0DD
:1017C00080625A60FB681B68FA681268926842F48B
:1017D00080729A60FB68986BFB681B684C331946F3
:1017E000BA687B6800F00AFD304B5B6803F01F03AA
:1017F000002B0FD1FB681B689B6803F04053002B44
:1018000043D1FB681B68FA681268926842F0804214
:101810009A603AE0FB681B68254A93420ED1FB6848
:101820001B689B6803F04053002B07D1FB681B68C3
:10183000FA681268926842F080429A601B4B5B68BB
:1018400003F01003002B20D1FB681B68194A934258
:101850001BD1FB681B689B6803F04053002B14D11D
:10186000FB681B68FA681268926842F080429A60CE
:101870000BE0FB681B6C43F01002FB681A64FB680A
:101880005B6C43F00102FB685A640023184618376A
:10189000BD4680BD0000002083DE1B43FEF8FFFF35
:1018A0007D1D0008371E0008531E0008002301405C
:1018B000002001400022014080B483B000AF786076
:1018C00000BF0C37BD465DF8047B704780B483B021
:1018D00000AF786000BF0C37BD465DF8047B7047F1
:1018E00080B483B000AF786000BF0C37BD465DF8B0
:1018F000047B704790B484B000AF786039600023F7
:10190000FB607B6893F83C30012B01D102232CE172
:101910007B68012283F83C203B681B68092B3BD97C
:101920003B681B68B3F1004F36D07B681A687B6850
:101930001B68D9683B681B689BB2184603465B006E
:1019400003441E3B072000FA03F3DB430B40D36044
:101950003B681B68874A93420AD17B681B687A6898
:101960001268D1683A68926812060A43DA6037E072
:101970007B681A687B681B68D9683B6898683B6815
:101980001B689BB21C4623465B0023441E3B00FAA7
:1019900003F30B43D36023E07B681A687B681B6802
:1019A00019693B681B689BB2184603465B000344F9
:1019B000072000FA03F3DB430B4013617B681A68CE
:1019C0007B681B6819693B6898683B681B689BB219
:1019D0001C4623465B00234400FA03F30B431361C8
:1019E0003B685B68062B24D87B6819687B681B689A
:1019F000586B3B685A6813469B001344053B1F22F3
:101A000002FA03F3DB4303404B637B6819687B688E
:101A10001B68586B3B681B689BB21C463B685A6846
:101A200013469B001344053B04FA03F303434B6343
:101A30004CE03B685B680C2B24D87B6819687B689A
:101A40001B68186B3B685A6813469B001344233B82
:101A50001F2202FA03F3DB4303400B637B68196820
:101A60007B681B68186B3B681B689BB21C463B6815
:101A70005A6813469B001344233B04FA03F30343C1
:101A80000B6323E07B6819687B681B68D86A3B6836
:101A90005A6813469B001344413B1F2202FA03F38A
:101AA000DB430340CB627B6819687B681B68D86A9C
:101AB0003B681B689BB21C463B685A6813469B00F8
:101AC0001344413B04FA03F30343CB627B681B6876
:101AD000294A93420AD13B681B68B3F1004F05D1F4
:101AE000264A264B5B6823F4400353607B681B68DF
:101AF000214A934209D13B681B68122B05D11F4A2A
:101B00001E4B5B6843F4800353607B681B681A4A72
:101B1000934225D13B681B68164A934203D03B6829
:101B20001B68112B1CD1154A144B5B6843F400034E
:101B300053603B681B680F4A934211D1104B1B68DE
:101B4000104AA2FB03239A0C13469B0013445B002C
:101B5000FB6002E0FB68013BFB60FB68002BF9D1F6
:101B60007B68002283F83C20002318461037BD46CE
:101B700090BC70471200001000200140002301407B
:101B80000000002083DE1B4380B483B000AF786088
:101B9000784A784B5B6823F4403353607549754B42
:101BA0005A687B685B6813434B607B681B687A6884
:101BB0001268526822F480725A607B681B687A68E7
:101BC000126851687A68126912020A435A607B6887
:101BD0001B687A681268526822F040725A607B680B
:101BE0001B687A68126851687A6892680A435A607A
:101BF0007B681B687A681268926822F400629A60B7
:101C00007B681B687A68126891687A68D2680A43B0
:101C10009A607B689B6A584A934222D07B681B6813
:101C20007A681268926822F070629A607B681B681A
:101C30007A68126891687A68926A0A439A607B6847
:101C40001B687A681268926822F040529A607B683A
:101C50001B687A68126891687A68D26A0A439A6047
:101C60000FE07B681B687A681268926822F07062E5
:101C70009A607B681B687A681268926822F040520A
:101C80009A607B681B687A681268926822F0020288
:101C90009A607B681B687A68126891687A689269B2
:101CA00052000A439A607B6893F82030002B1BD0C7
:101CB0007B681B687A681268526842F400625A6056
:101CC0007B681B687A681268526822F460425A6026
:101CD0007B681B687A68126851687A68526A013AB0
:101CE00052030A435A6007E07B681B687A681268EF
:101CF000526822F400625A607B681B687A68126836
:101D0000D26A22F47002DA627B681B687A68126811
:101D1000D16A7A68D269013A12050A43DA627B68AD
:101D20001B687A681268926822F400729A607B6875
:101D30001B687A68126891687A6892F830205202BB
:101D40000A439A607B681B687A681268926822F47A
:101D500080629A607B681B687A68126891687A680A
:101D6000526992020A439A6000BF0C37BD465DF883
:101D7000047B7047002301400100000F80B584B050
:101D800000AF78607B689B6BFB60FB681B6C03F0AB
:101D90005003002B3CD1FB681B6C43F40072FB68C2
:101DA0001A64FB681B689B6803F04053002B2BD11F
:101DB000FB689B69002B27D1FB681B68DB6A03F477
:101DC0007003002B06D0FB681B689B6803F48063DC
:101DD000002B19D1FB681B68FA681268526822F060
:101DE00020025A60FB681B6C23F48072FB681A6443
:101DF000FB681B6C03F48053002B05D1FB681B6C44
:101E000043F00102FB681A64F868FFF755FD0EE025
:101E1000FB681B6C03F01003002B03D0F868FFF77E
:101E20005FFD04E0FB689B6BDB6C7868984700BF44
:101E30001037BD4680BD80B584B000AF78607B6848
:101E40009B6BFB60F868FFF741FD00BF1037BD4694
:101E500080BD80B584B000AF78607B689B6BFB6011
:101E6000FB6840221A64FB685B6C43F00402FB6869
:101E70005A64F868FFF734FD00BF1037BD4680BDD7
:101E800080B485B000AF78607B6803F00703FB6027
:101E90000B4BDB68BB60BA684FF6FF031340BB60B7
:101EA000FB681A02BB681A43064B1343BB60044A23
:101EB000BB68D36000BF1437BD465DF8047B704734
:101EC00000ED00E00000FA0580B400AF044BDB68D1
:101ED0001B0A03F007031846BD465DF8047B7047F4
:101EE00000ED00E080B483B000AF0346FB7197F9CA
:101EF0000730002B0BDB094997F907305B09FA79AA
:101F000002F01F02012000FA02F241F8232000BF74
:101F10000C37BD465DF8047B704700BF00E100E070
:101F200080B483B000AF03463960FB7197F9073086
:101F3000002B0ADB0D4997F907303A68D2B212013B
:101F4000D2B20B4483F800230AE00949FB7903F07D
:101F50000F03043B3A68D2B21201D2B20B441A7694
:101F600000BF0C37BD465DF8047B704700E100E020
:101F700000ED00E080B489B000AFF860B9607A602D
:101F8000FB6803F00703FB61FB69C3F10703042B44
:101F900028BF0423BB61FB690433062B02D9FB690C
:101FA000033B00E000237B610122BB6902FA03F3DB
:101FB0005A1EBB681A407B699A4001217B6901FA6D
:101FC00003F3591E7B680B40134318462437BD4664
:101FD0005DF8047B7047000080B582B000AF786088
:101FE0007B68013BB3F1807F01D301230FE00A4AF4
:101FF0007B68013B53600F214FF0FF30FFF790FFEC
:10200000054B00229A60044B07221A6000231846F1
:102010000837BD4680BD00BF10E000E080B582B04B
:1020200000AF78607868FFF72BFF00BF0837BD4628
:1020300080BD80B586B000AF0346B9607A60FB739F
:1020400000237B61FFF740FF78617A68B96878699F
:10205000FFF790FF024697F90F3011461846FFF739
:102060005FFF00BF1837BD4680BD80B582B000AFAE
:102070000346FB7197F907301846FFF733FF00BF9F
:102080000837BD4680BD80B582B000AF7860786803
:10209000FFF7A2FF034618460837BD4680BD000083
:1020A00080B586B000AF786000237B61FFF798FAB7
:1020B00038617B68002B01D1012399E07B68002205
:1020C00083F834207B68022283F835207B681B6804
:1020D0007A681268126822F001021A600FE0FFF7B6
:1020E0007FFA02463B69D31A052B08D97B68202268
:1020F0005A657B68032283F83520032378E07B68E8
:102100001B681B6803F00103002BE8D17B681B6888
:102110001B687B617A69384B13407B617B685A6826
:102120007B689B681A437B68DB681A437B681B6982
:102130001A437B685B691A437B689B691A437B6817
:10214000DB691A437B681B6A13437A6913437B611B
:102150007B685B6A042B07D17B68DA6A7B681B6B40
:1021600013437A6913437B617B681B687A691A6041
:102170007B681B685B697B617B6923F007037B617C
:102180007B685B6A7A6913437B617B685B6A042BBB
:1021900017D17B689B6A7A6913437B617B68DB6A32
:1021A000002B0ED0786800F077FA0346002B08D099
:1021B0007B6840225A657B68012283F83520012321
:1021C00016E07B681B687A695A61786800F02EFA1D
:1021D0000346FB607B68DB6D3F229A40FB689A6098
:1021E0007B6800225A657B68012283F83520002332
:1021F00018461837BD4680BD3F8010F080B586B0C8
:1022000000AFF860B9607A603B600023FB75FB6843
:102210009B6D3B61FB6893F83430012B01D10223A5
:1022200048E0FB68012283F83420FB6893F83530DE
:10223000DBB2012B37D1FB68022283F83520FB6823
:1022400000225A653B687A68B968F86800F0C0F9FE
:10225000FB68DB6D3F229A403B699A60FB681B6814
:10226000FA681268126842F016021A60FB681B686E
:10227000FA681268526942F080025A61FB681B6C6E
:10228000002B07D0FB681B68FA681268126842F0DE
:1022900008021A60FB681B68FA681268126842F04C
:1022A00001021A6005E0FB68002283F83420022353
:1022B000FB75FB7D18461837BD4680BD80B586B0DE
:1022C00000AF78600023BB60924B1B68924AA2FB70
:1022D00003239B0A7B617B689B6D3B613B691B68A9
:1022E000FB607B68DB6D08229A40FB681340002B83
:1022F0001AD07B681B681B6803F00403002B13D003
:102300007B681B687A681268126822F004021A60FF
:102310007B68DB6D08229A403B699A607B685B6D45
:1023200043F001027B685A657B68DB6D01229A40AD
:10233000FB681340002B12D07B681B685B6903F0BD
:102340008003002B0BD07B68DB6D01229A403B6938
:102350009A607B685B6D43F002027B685A657B681C
:10236000DB6D04229A40FB681340002B12D07B687F
:102370001B681B6803F00203002B0BD07B68DB6D2E
:1023800004229A403B699A607B685B6D43F00402CB
:102390007B685A657B68DB6D10229A40FB681340AE
:1023A000002B43D07B681B681B6803F00803002BDD
:1023B0003CD07B68DB6D10229A403B699A607B6859
:1023C0001B681B6803F48023002B18D07B681B68F4
:1023D0001B6803F40023002B08D17B681B6C002BC7
:1023E00024D07B681B6C786898471FE07B689B6CE7
:1023F000002B1BD07B689B6C7868984716E07B6845
:102400001B681B6803F48073002B07D17B681B6873
:102410007A681268126822F008021A607B681B6CE6
:10242000002B03D07B681B6C786898477B68DB6D5A
:1024300020229A40FB681340002B00F08E807B68BE
:102440001B681B6803F01003002B00F086807B687C
:10245000DB6D20229A403B699A607B6893F83530A7
:10246000DBB2052B36D17B681B687A68126812686C
:1024700022F016021A607B681B687A68126852693B
:1024800022F080025A617B681B6C002B03D17B68B1
:102490009B6C002B07D07B681B687A6812681268F7
:1024A00022F008021A607B68DB6D3F229A403B698C
:1024B0009A607B68002283F834207B68012283F8CD
:1024C00035207B681B6D002B7DD07B681B6D786889
:1024D000984778E07B681B681B6803F48023002B17
:1024E0001CD07B681B681B6803F40023002B08D1F9
:1024F0007B685B6C002B30D07B685B6C786898479E
:102500002BE07B68DB6B002B27D07B68DB6B78686C
:10251000984722E000000020B5814E1B7B681B68B5
:102520001B6803F48073002B0FD17B681B687A68EB
:102530001268126822F010021A607B68002283F889
:1025400034207B68012283F835207B68DB6B002B0D
:1025500003D07B68DB6B786898477B685B6D002BEA
:1025600032D07B685B6D03F00103002B22D07B68C7
:10257000052283F835207B681B687A681268126828
:1025800022F001021A60BB680133BB607A69934292
:1025900007D87B681B681B6803F00103002BF2D18E
:1025A00000E000BF7B68002283F834207B680122B2
:1025B00083F835207B68DB6C002B05D07B68DB6CF7
:1025C0007868984700E000BF1837BD4680BD00BF5F
:1025D00080B485B000AFF860B9607A603B60FB689A
:1025E0001B68FA681268126822F480221A60FB687D
:1025F0001B683A685A60FB689B68402B08D1FB68EF
:102600001B687A689A60FB681B68BA68DA6007E042
:10261000FB681B68BA689A60FB681B687A68DA60B6
:1026200000BF1437BD465DF8047B704780B485B0A9
:1026300000AF78607B681B68DBB2103B134AA2FBDB
:1026400003231B09FB60124AFB6813441B781A46DC
:102650007B68DA65FB68032B08D97B681B681A4620
:102660000C4B13401A1D7B689A6506E07B681B685B
:102670001A46084B13407A6893657B689B6D184631
:102680001437BD465DF8047B704700BFABAAAAAA09
:10269000A04D000800FCFFFF80B485B000AF78605B
:1026A0000023FB737B689B6ABB607B689B69002B84
:1026B0001FD1BB68032B55D801A252F823F000BFED
:1026C000D1260008E3260008D12600086527000867
:1026D0007B68DB6A03F08073002B45D00123FB731A
:1026E00042E07B68DB6AB3F1C07F3FD10123FB731B
:1026F0003CE07B689B69B3F5005F21D1BB68032B8D
:1027000036D801A252F823F0192700081F27000825
:1027100019270008312700080123FB732FE07B688D
:10272000DB6A03F08073002B24D00123FB7321E0CC
:102730007B68DB6AB3F1C07F1ED10123FB731BE012
:10274000BB68022B02D9032B03D018E00123FB73D3
:1027500015E07B68DB6A03F08073002B0ED0012349
:10276000FB730BE000BF0AE000BF08E000BF06E01B
:1027700000BF04E000BF02E000BF00E000BFFB7B41
:1027800018461437BD465DF8047B704780B489B0A5
:1027900000AF786039600023FB6100237B61002378
:1027A0003B610023BB610023FB6175E10122FB69F2
:1027B00002FA03F37B613B681A687B6913403B6153
:1027C0003A697B699A4240F064813B685B68012BFF
:1027D0000BD03B685B68022B07D03B685B68112B12
:1027E00003D03B685B68122B30D17B689B68BB6170
:1027F000FB695B00032202FA03F3DB43BA6913406F
:10280000BB613B68DA68FB695B0002FA03F3BA69F3
:102810001343BB617B68BA699A607B685B68BB6184
:102820000122FB6902FA03F3DB43BA691340BB617F
:102830003B685B681B0903F00102FB6902FA03F3C2
:10284000BA691343BB617B68BA695A607B68DB680D
:10285000BB61FB695B00032202FA03F3DB43BA6945
:102860001340BB613B689A68FB695B0002FA03F3A3
:10287000BA691343BB617B68BA69DA603B685B681D
:10288000022B03D03B685B68122B23D1FB69DA086B
:102890007B68083253F82230BB61FB6903F0070301
:1028A0009B000F2202FA03F3DB43BA691340BB61BA
:1028B0003B681A69FB6903F007039B0002FA03F304
:1028C000BA691343BB61FB69DA087B680832B969EE
:1028D00043F822107B681B68BB61FB695B00032225
:1028E00002FA03F3DB43BA691340BB613B685B68E0
:1028F00003F00302FB695B0002FA03F3BA691343B6
:10290000BB617B68BA691A603B685B6803F08053FF
:10291000002B00F0BE80654A644B5B6C43F480433F
:102920005364624B5B6C03F48043FB60FB68604A5A
:10293000FB699B08023352F82330BB61FB6903F04B
:1029400003039B000F2202FA03F3DB43BA6913402F
:10295000BB617B68574A934237D07B68564A9342A3
:1029600031D07B68554A93422BD07B68544A9342BE
:1029700025D07B68534A93421FD07B68524A9342CA
:1029800019D07B68514A934213D07B68504A9342D6
:102990000DD07B684F4A934207D07B684E4A9342E2
:1029A00001D1092312E00A2310E008230EE00723D7
:1029B0000CE006230AE0052308E0042306E00323D5
:1029C00004E0022302E0012300E00023FA6902F0A0
:1029D000030292009340BA691343BB613449FB6917
:1029E0009B080233BA6941F823203C4B1B68BB614A
:1029F0003B69DB43BA691340BB613B685B6803F426
:102A00008033002B03D0BA693B691343BB61334A5F
:102A1000BB691360314B5B68BB613B69DB43BA69DF
:102A20001340BB613B685B6803F40033002B03D0A9
:102A3000BA693B691343BB61284ABB695360274BA2
:102A40009B68BB613B69DB43BA691340BB613B6870
:102A50005B6803F48013002B03D0BA693B6913430E
:102A6000BB611E4ABB6993601C4BDB68BB613B6961
:102A7000DB43BA691340BB613B685B6803F4001336
:102A8000002B03D0BA693B691343BB61134ABB698E
:102A9000D360FB690133FB61FB690F2B7FF686AEC8
:102AA00000BF2437BD465DF8047B70470038024004
:102AB00000380140000002400004024000080240CB
:102AC000000C0240001002400014024000180240B6
:102AD000001C02400020024000240240003C014053
:102AE00080B483B000AF78600B467B8013467B7068
:102AF0007B78002B03D07A887B689A6103E07B881F
:102B00001A047B689A6100BF0C37BD465DF8047BF0
:102B1000704780B485B000AF78600B467B807B68DF
:102B20005B69FB607A88FB6813401A04FB68D94331
:102B30007B880B401A437B689A6100BF1437BD46FF
:102B40005DF8047B7047000080B586B000AF786008
:102B50000023FB757B68002B01D1012391E27B6888
:102B60001B6803F00103002B00F08780964B9B68E5
:102B700003F00C03042B0CD0934B9B6803F00C0365
:102B8000082B12D1904B5B6803F48003B3F5800FE0
:102B90000BD18D4B1B6803F40033002B6CD07B688A
:102BA0005B68002B68D101236BE27B685B68B3F53F
:102BB000803F06D1844A844B1B6843F48033136002
:102BC0002EE07B685B68002B0CD17F4A7E4B1B6834
:102BD00023F4803313607C4A7B4B1B6823F48023EF
:102BE00013601DE07B685B68B3F5A02F0CD1764ABB
:102BF000754B1B6843F480231360734A724B1B6848
:102C000043F4803313600BE06F4A6F4B1B6823F46F
:102C1000803313606C4A6C4B1B6823F48023136071
:102C20007B685B68002B13D0FEF7DAFC386108E0A4
:102C3000FEF7D6FC02463B69D31A642B01D9032365
:102C40001FE2614B1B6803F40033002BF0D014E04B
:102C5000FEF7C6FC386108E0FEF7C2FC02463B699D
:102C6000D31A642B01D903230BE2574B1B6803F4DF
:102C70000033002BF0D100E000BF7B681B6803F03D
:102C80000203002B69D0504B9B6803F00C03002B10
:102C90000BD04D4B9B6803F00C03082B1CD14A4B07
:102CA0005B6803F48003002B16D1474B1B6803F0CD
:102CB0000203002B05D07B68DB68012B01D00123C8
:102CC000DFE14149404B1B6823F0F8027B681B6938
:102CD000DB0013430B6040E07B68DB68002B23D0F4
:102CE000394A394B1B6843F001031360FEF778FC47
:102CF000386108E0FEF774FC02463B69D31A022BE8
:102D000001D90323BDE1304B1B6803F00203002B04
:102D1000F0D02D492C4B1B6823F0F8027B681B690F
:102D2000DB0013430B6018E0274A274B1B6823F096
:102D300001031360FEF754FC386108E0FEF750FC15
:102D400002463B69D31A022B01D9032399E11E4B9A
:102D50001B6803F00203002BF0D17B681B6803F0B3
:102D60000803002B38D07B685B69002B19D0164A0A
:102D7000154B5B6F43F001035367FEF731FC38617D
:102D800008E0FEF72DFC02463B69D31A022B01D95D
:102D9000032376E10C4B5B6F03F00203002BF0D0B2
:102DA0001AE0094A084B5B6F23F001035367FEF7F3
:102DB00017FC38610AE0FEF713FC02463B69D31AA0
:102DC000022B03D903235CE100380240914B5B6F77
:102DD00003F00203002BEED17B681B6803F00403B1
:102DE000002B00F0A4808B4B1B6C03F08053002B56
:102DF0000DD1884A874B1B6C43F080531364854B7D
:102E00001B6C03F08053BB60BB680123FB75824BD6
:102E10001B6803F48073002B18D17F4A7E4B1B681C
:102E200043F480731360FEF7DBFB386108E0FEF7C4
:102E3000D7FB02463B69D31A642B01D9032320E157
:102E4000754B1B6803F48073002BF0D07B689B6884
:102E5000012B06D16F4A6F4B1B6F43F001031367C1
:102E60002DE07B689B68002B0CD16A4A694B1B6F75
:102E700023F001031367674A664B1B6F23F00403BB
:102E800013671CE07B689B68052B0CD1614A614B82
:102E90001B6F43F0040313675E4A5E4B1B6F43F0E6
:102EA000010313670BE05B4A5A4B1B6F23F00103CE
:102EB0001367584A574B1B6F23F0040313677B6853
:102EC0009B68002B15D0FEF78BFB38610AE0FEF7FC
:102ED00087FB02463B69D31A41F28832934201D9FB
:102EE0000323CEE04B4B1B6F03F00203002BEED00D
:102EF00014E0FEF775FB38610AE0FEF771FB02464D
:102F00003B69D31A41F28832934201D90323B8E0D6
:102F1000404B1B6F03F00203002BEED1FB7D012B16
:102F200005D13C4A3B4B1B6C23F0805313647B68F8
:102F30009B69002B00F0A480364B9B6803F00C03C8
:102F4000082B6BD07B689B69022B49D1314A314BEE
:102F50001B6823F080731360FEF742FB386108E0C2
:102F6000FEF73EFB02463B69D31A022B01D903232D
:102F700087E0284B1B6803F00073002BF0D1254934
:102F80007B68DA697B681B6A1A437B685B6A9B0112
:102F90001A437B689B6A5B08013B1B041A437B68EE
:102FA000DB6A1B06134343F000534B60194A194B6D
:102FB0001B6843F080731360FEF712FB386108E072
:102FC000FEF70EFB02463B69D31A022B01D90323FD
:102FD00057E0104B1B6803F00073002BF0D04FE05C
:102FE0000C4A0C4B1B6823F080731360FEF7F8FA51
:102FF000386108E0FEF7F4FA02463B69D31A022B67
:1030000001D903233DE0034B1B6803F00073002B41
:10301000F0D135E000380240007000401B4B5B6887
:10302000FB607B689B69012B28D0FB6803F480025E
:103030007B68DB699A4221D1FB6803F03F027B6821
:103040001B6A9A421AD1FA6847F6C07313407A682D
:10305000526A9201934211D1FB6803F440327B68BB
:103060009B6A5B08013B1B049A4207D1FB6803F093
:1030700070627B68DB6A1B069A4201D0012300E084
:10308000002318461837BD4680BD00BF00380240F7
:1030900080B584B000AF786039600023FB607B6846
:1030A000002B01D10123D0E06A4B1B6803F00F0213
:1030B0003B689A4210D26749664B1B6823F00F02A7
:1030C0003B6813430B60634B1B6803F00F023B68C4
:1030D0009A4201D00123B8E07B681B6803F0020329
:1030E000002B20D07B681B6803F00403002B05D065
:1030F000594A594B9B6843F4E05393607B681B68C3
:1031000003F00803002B05D0534A534B9B6843F44C
:10311000604393605049504B9B6823F0F0027B68FA
:103120009B6813438B607B681B6803F00103002BD3
:1031300040D07B685B68012B07D1474B1B6803F4C9
:103140000033002B15D101237FE07B685B68022BE5
:1031500007D1414B1B6803F00073002B09D10123F9
:1031600073E03D4B1B6803F00203002B01D10123E8
:103170006BE03949384B9B6823F003027B685B683E
:1031800013438B60FEF72CFAF8600AE0FEF728FA8A
:103190000246FB68D31A41F28832934201D90323D5
:1031A00053E02D4B9B6803F00C027B685B689B002F
:1031B0009A42EBD1274B1B6803F00F023B689A42FF
:1031C00010D92449234B1B6823F00F023B6813439B
:1031D0000B60204B1B6803F00F023B689A4201D042
:1031E000012332E07B681B6803F00403002B08D046
:1031F0001949194B9B6823F4E0527B68DB68134341
:103200008B607B681B6803F00803002B09D0124910
:10321000114B9B6823F460427B681B69DB001343FE
:103220008B6000F021F801460B4B9B681B0903F0F3
:103230000F030A4AD35C21FA03F3094A1360094BCE
:103240001B681846FEF788F9002318461037BD465C
:1032500080BD00BF003C024000380240904D000895
:1032600000000020040000202DE9F04F87B000AFDF
:103270000022FA6000227A610022BA6000223A61DC
:10328000514A926802F00C02042A07D0082A08D09A
:10329000002A40F090804D4B3B618FE04C4B3B61EE
:1032A0008CE0494A526802F03F02FA60464A52688E
:1032B00002F48002002A23D0434B5B689B094FF045
:1032C000000440F2FF114FF0000203EA010304EA98
:1032D00002043F4A02FB04F1002202FB03F20A440B
:1032E0003B49A3FB010153181946FB684FF000044A
:1032F0001A462346FCF7DCFF03460C467B614CE094
:10330000314A5268920911464FF0000240F2FF150F
:103310004FF0000605EA010506EA02062946324694
:103320004FEA421B4BEAD16B4FEA411A51465A46CB
:10333000AA46B34655465E464D1B62EB0606294635
:103340003246940144EA91648B015B1A64EB0204F7
:103350004FEAC40949EA53794FEAC30843464C4649
:1033600055465E46ED1846EB04062B463446A2024F
:103370007A607A6842EA93527A609B023B6097E8EF
:10338000180018462146FB684FF000041A462346F1
:10339000FCF78EFF03460C467B610B4B5B681B0CF6
:1033A00003F0030301335B00BB607A69BB68B2FBC7
:1033B000F3F33B6102E0054B3B6100BF3B691846FC
:1033C0001C37BD46BDE8F08F003802400024F400F1
:1033D00040787D0180B582B000AF78607B68002BBB
:1033E00001D1012349E07B6893F83D30DBB2002B2B
:1033F00006D17B68002283F83C207868FDF796FFB1
:103400007B68022283F83D207B681A687B6804335E
:103410001946104600F05AFB7B68012283F84820C9
:103420007B68012283F83E207B68012283F83F20DD
:103430007B68012283F840207B68012283F84120C9
:103440007B68012283F842207B68012283F84320B5
:103450007B68012283F844207B68012283F84520A1
:103460007B68012283F846207B68012283F847208D
:103470007B68012283F83D20002318460837BD46AB
:1034800080BD80B582B000AF78607B68002B01D131
:10349000012349E07B6893F83D30DBB2002B06D175
:1034A0007B68002283F83C20786800F041F87B6854
:1034B000022283F83D207B681A687B680433194632
:1034C000104600F003FB7B68012283F848207B68EC
:1034D000012283F83E207B68012283F83F207B682D
:1034E000012283F840207B68012283F841207B6819
:1034F000012283F842207B68012283F843207B6805
:10350000012283F844207B68012283F845207B68F0
:10351000012283F846207B68012283F847207B68DC
:10352000012283F83D20002318460837BD4680BDA0
:1035300080B483B000AF786000BF0C37BD465DF843
:10354000047B704780B584B000AF786039603B6819
:10355000002B09D17B6893F83E30DBB2012B14BFFE
:1035600001230023DBB23CE03B68042B09D17B68DC
:1035700093F83F30DBB2012B14BF01230023DBB2F1
:103580002FE03B68082B09D17B6893F84030DBB211
:10359000012B14BF01230023DBB222E03B680C2B7C
:1035A00009D17B6893F84130DBB2012B14BF0123B2
:1035B0000023DBB215E03B68102B09D17B6893F840
:1035C0004230DBB2012B14BF01230023DBB208E041
:1035D0007B6893F84330DBB2012B14BF0123002337
:1035E000DBB2002B01D0012392E03B68002B04D119
:1035F0007B68022283F83E2023E03B68042B04D141
:103600007B68022283F83F201BE03B68082B04D133
:103610007B68022283F8402013E03B680C2B04D126
:103620007B68022283F841200BE03B68102B04D119
:103630007B68022283F8422003E07B68022283F841
:1036400043207B681B6801223968184600F0D6FDCC
:103650007B681B68304A934204D07B681B682F4A02
:10366000934201D1012300E00023002B07D07B68A7
:103670001B687A681268526C42F400425A647B6894
:103680001B68254A934222D07B681B68B3F1804FA8
:103690001DD07B681B68224A934218D07B681B6848
:1036A000204A934213D07B681B681F4A93420ED076
:1036B0007B681B68194A934209D07B681B681B4AC8
:1036C000934204D07B681B68194A934215D17B68EA
:1036D0001B689A68174B1340FB60FB68062B15D0DC
:1036E000FB68B3F5803F11D07B681B687A6812686D
:1036F000126842F001021A6008E07B681B687A6871
:103700001268126842F001021A6000E000BF002354
:1037100018461037BD4680BD00000140000401403E
:103720000004004000080040000C00400040014040
:10373000001800400700010080B584B000AFF860B9
:10374000B9607A60FB6893F83C30012B01D1022309
:10375000FDE0FB68012283F83C207B68142B00F21B
:10376000F08001A252F823F0BD3700084339000869
:103770004339000843390008FD3700084339000881
:1037800043390008433900083F380008433900082E
:1037900043390008433900087F38000843390008DE
:1037A0004339000843390008C1380008433900088C
:1037B000433900084339000801390008FB681B68D9
:1037C000B968184600F022FAFB681B68FA681268AC
:1037D000926942F008029A61FB681B68FA681268F5
:1037E000926922F004029A61FB681B68FA68126809
:1037F0009169BA6812690A439A61A3E0FB681B6881
:10380000B968184600F074FAFB681B68FA68126819
:10381000926942F400629A61FB681B68FA68126858
:10382000926922F480629A61FB681B68FA681268E8
:103830009169BA68126912020A439A6182E0FB68D0
:103840001B68B968184600F0CBFAFB681B68FA6879
:103850001268D26942F00802DA61FB681B68FA68F4
:103860001268D26922F00402DA61FB681B68FA6808
:103870001268D169BA6812690A43DA6162E0FB68CA
:103880001B68B968184600F021FBFB681B68FA68E2
:103890001268D26942F40062DA61FB681B68FA6858
:1038A0001268D26922F48062DA61FB681B68FA68E8
:1038B0001268D169BA68126912020A43DA6141E0FA
:1038C000FB681B68B968184600F058FBFB681B686A
:1038D000FA681268526D42F008025A65FB681B686C
:1038E000FA681268526D22F004025A65FB681B6880
:1038F000FA681268516DBA6812690A435A6521E084
:10390000FB681B68B968184600F08AFBFB681B68F7
:10391000FA681268526D42F400625A65FB681B68CF
:10392000FA681268526D22F480625A65FB681B685F
:10393000FA681268516DBA68126912020A435A6530
:1039400000E000BFFB68002283F83C2000231846FB
:103950001037BD4680BD00BF80B584B000AF786031
:1039600039607B6893F83C30012B01D10223A6E03B
:103970007B68012283F83C207B68022283F83D208B
:103980007B681B689B68FB60FA684F4B1340FB60C9
:10399000FB6823F47F43FB607B681B68FA689A60CE
:1039A0003B681B68402B67D0402B0BD8102B73D083
:1039B000102B02D8002B6FD078E0202B6CD0302B4E
:1039C0006AD073E0702B0DD0702B04D8502B33D0FD
:1039D000602B41D06AE0B3F5805F66D0B3F5005F3D
:1039E00017D063E07B6818683B6899683B685A6841
:1039F0003B68DB6800F0E2FB7B681B689B68FB6050
:103A0000FB6843F07703FB607B681B68FA689A6089
:103A10004CE07B6818683B6899683B685A683B686B
:103A2000DB6800F0CBFB7B681B687A6812689268E1
:103A300042F480429A6039E07B6818683B685968B4
:103A40003B68DB681A4600F03FFB7B681B6850212F
:103A5000184600F098FB29E07B6818683B685968B5
:103A60003B68DB681A4600F05EFB7B681B686021E0
:103A7000184600F088FB19E07B6818683B685968B5
:103A80003B68DB681A4600F01FFB7B681B6840211F
:103A9000184600F078FB09E07B681A683B681B68F1
:103AA0001946104600F06FFB00E000BF7B68012262
:103AB00083F83D207B68002283F83C2000231846D1
:103AC0001037BD4680BD00BF88FFFEFF80B485B0C3
:103AD00000AF786039607B681B68FB607B68404A98
:103AE000934213D07B68B3F1804F0FD07B683D4A7F
:103AF00093420BD07B683C4A934207D07B683B4A99
:103B0000934203D07B683A4A934208D1FB6823F082
:103B10007003FB603B685B68FA681343FB607B687B
:103B20002F4A93422BD07B68B3F1804F27D07B681C
:103B30002C4A934223D07B682B4A93421FD07B6848
:103B40002A4A93421BD07B68294A934217D07B684C
:103B5000284A934213D07B68274A93420FD07B6850
:103B6000264A93420BD07B68254A934207D07B6854
:103B7000244A934203D07B68234A934208D1FB68CE
:103B800023F44073FB603B68DB68FA681343FB6017
:103B9000FB6823F080023B685B691343FB607B6832
:103BA000FA681A603B689A687B68DA623B681A6850
:103BB0007B689A627B680A4A934203D07B680C4A0E
:103BC000934203D13B681A697B681A637B680122C0
:103BD0005A6100BF1437BD465DF8047B704700BFD3
:103BE000000001400004004000080040000C0040BC
:103BF00000040140004001400044014000480140F1
:103C000000180040001C00400020004080B487B035
:103C100000AF786039607B681B6A23F001027B6823
:103C20001A627B681B6A7B617B685B683B617B68AF
:103C30009B69FB60FA682B4B1340FB60FB6823F029
:103C40000303FB603B681B68FA681343FB607B69F6
:103C500023F002037B613B689B687A6913437B61B5
:103C60007B68214A934203D07B68204A93420CD15F
:103C70007B6923F008037B613B68DB687A69134347
:103C80007B617B6923F004037B617B68164A934266
:103C900003D07B68154A934211D13B6923F48073AA
:103CA0003B613B6923F400733B613B685B693A69A4
:103CB00013433B613B689B693A6913433B617B68F3
:103CC0003A695A607B68FA689A613B685A687B680F
:103CD0005A637B687A691A6200BF1C37BD465DF87B
:103CE000047B70478FFFFEFF00000140000401408D
:103CF00080B487B000AF786039607B681B6A23F0BE
:103D000010027B681A627B681B6A7B617B685B6858
:103D10003B617B689B69FB60FA682E4B1340FB603C
:103D2000FB6823F44073FB603B681B681B02FA6866
:103D30001343FB607B6923F020037B613B689B6836
:103D40001B017A6913437B617B68234A934203D04A
:103D50007B68224A93420DD17B6923F080037B610B
:103D60003B68DB681B017A6913437B617B6923F045
:103D700040037B617B68184A934203D07B68174AF3
:103D8000934213D13B6923F480633B613B6923F485
:103D900000633B613B685B699B003A6913433B618D
:103DA0003B689B699B003A6913433B617B683A69B6
:103DB0005A607B68FA689A613B685A687B689A63C4
:103DC0007B687A691A6200BF1C37BD465DF8047BC8
:103DD000704700BFFF8FFFFE00000140000401405C
:103DE00080B487B000AF786039607B681B6A23F4C9
:103DF00080727B681A627B681B6A7B617B685B6888
:103E00003B617B68DB69FB60FA682D4B1340FB600C
:103E1000FB6823F00303FB603B681B68FA681343ED
:103E2000FB607B6923F400737B613B689B681B022A
:103E30007A6913437B617B68224A934203D07B6893
:103E4000214A93420DD17B6923F400637B613B6877
:103E5000DB681B027A6913437B617B6923F480630F
:103E60007B617B68174A934203D07B68164A934272
:103E700013D13B6923F480533B613B6923F4005326
:103E80003B613B685B691B013A6913433B613B68DB
:103E90009B691B013A6913433B617B683A695A602D
:103EA0007B68FA68DA613B685A687B68DA637B682A
:103EB0007A691A6200BF1C37BD465DF8047B704703
:103EC0008FFFFEFF000001400004014080B487B076
:103ED00000AF786039607B681B6A23F480527B688E
:103EE0001A627B681B6A3B617B685B687B617B68ED
:103EF000DB69FB60FA681E4B1340FB60FB6823F430
:103F00004073FB603B681B681B02FA681343FB604D
:103F10003B6923F400533B613B689B681B033A6990
:103F200013433B617B68134A934203D07B68124A78
:103F3000934209D17B6923F480437B613B685B69D1
:103F40009B017A6913437B617B687A695A607B685D
:103F5000FA68DA613B685A687B681A647B683A6978
:103F60001A6200BF1C37BD465DF8047B704700BF76
:103F7000FF8FFFFE000001400004014080B487B0C5
:103F800000AF786039607B681B6A23F480327B68FD
:103F90001A627B681B6A3B617B685B687B617B683C
:103FA0005B6DFB60FA681B4B1340FB603B681B6852
:103FB000FA681343FB603B6923F400333B613B68C1
:103FC0009B681B043A6913433B617B68124A934226
:103FD00003D07B68114A934209D17B6923F4803373
:103FE0007B613B685B691B027A6913437B617B6879
:103FF0007A695A607B68FA685A653B685A687B68D8
:104000009A657B683A691A6200BF1C37BD465DF845
:10401000047B70478FFFFEFF000001400004014059
:1040200080B487B000AF786039607B681B6A23F486
:1040300080127B681A627B681B6A3B617B685B68E5
:104040007B617B685B6DFB60FA681C4B1340FB6017
:104050003B681B681B02FA681343FB603B6923F44F
:1040600000133B613B689B681B053A6913433B6146
:104070007B68134A934203D07B68124A934209D16A
:104080007B6923F480237B613B685B699B027A69CF
:1040900013437B617B687A695A607B68FA685A656A
:1040A0003B685A687B68DA657B683A691A6200BFC8
:1040B0001C37BD465DF8047B704700BFFF8FFFFED5
:1040C000000001400004014080B487B000AFF860F8
:1040D000B9607A60FB681B6A7B61FB681B6A23F02E
:1040E0000102FB681A62FB689B693B613B6923F034
:1040F000F0033B617B681B013A6913433B617B69B9
:1041000023F00A037B617A69BB6813437B61FB6818
:104110003A699A61FB687A691A6200BF1C37BD462A
:104120005DF8047B704780B487B000AFF860B96079
:104130007A60FB681B6A23F01002FB681A62FB6856
:104140009B697B61FB681B6A3B617B6923F470435D
:104150007B617B681B037A6913437B613B6923F0B6
:10416000A0033B61BB681B013A6913433B61FB68D9
:104170007A699A61FB683A691A6200BF1C37BD46CA
:104180005DF8047B704780B485B000AF786039601B
:104190007B689B68FB60FB6823F07003FB603A68F8
:1041A000FB68134343F00703FB607B68FA689A607F
:1041B00000BF1437BD465DF8047B704780B487B0FC
:1041C00000AFF860B9607A603B60FB689B687B6118
:1041D0007B6923F47F437B613B681A027B681A4347
:1041E000BB6813437A6913437B61FB687A699A6001
:1041F00000BF1C37BD465DF8047B704780B487B0B4
:1042000000AFF860B9607A60BB6803F01F03012259
:1042100002FA03F37B61FB681A6A7B69DB431A408D
:10422000FB681A62FB681A6ABB6803F01F037968AF
:1042300001FA03F31A43FB681A6200BF1C37BD463C
:104240005DF8047B7047000080B485B000AF7860F3
:1042500039607B6893F83C30012B01D102236DE07B
:104260007B68012283F83C207B68022283F83D2092
:104270007B681B685B68FB607B681B689B68BB6036
:104280007B681B68304A934204D07B681B682F4AC6
:10429000934208D1FB6823F47003FB603B685B68C2
:1042A000FA681343FB60FB6823F07003FB603B6814
:1042B0001B68FA681343FB607B681B68FA685A60E6
:1042C0007B681B68204A934222D07B681B68B3F14D
:1042D000804F1DD07B681B681D4A934218D07B68B5
:1042E0001B681C4A934213D07B681B681A4A93428E
:1042F0000ED07B681B68154A934209D07B681B6807
:10430000164A934204D07B681B68154A93420CD12D
:10431000BB6823F08003BB603B689B68BA681343AB
:10432000BB607B681B68BA689A607B68012283F86F
:104330003D207B68002283F83C2000231846143778
:10434000BD465DF8047B7047000001400004014059
:104350000004004000080040000C00400040014004
:104360000018004080B485B000AF78603960002349
:10437000FB607B6893F83C30012B01D1022365E0A0
:104380007B68012283F83C20FB6823F0FF023B6836
:10439000DB681343FB60FB6823F440723B689B6857
:1043A0001343FB60FB6823F480623B685B68134344
:1043B000FB60FB6823F400623B681B681343FB60EF
:1043C000FB6823F480523B681B691343FB60FB6866
:1043D00023F400523B685B691343FB60FB6823F4E2
:1043E00080423B689B6A1343FB60FB6823F47022A6
:1043F0003B689B691B041343FB607B681B68164A80
:10440000934204D07B681B68144A934215D1FB6821
:1044100023F470023B685B6A1B051343FB60FB6877
:1044200023F080723B68DB691343FB60FB6823F079
:1044300000723B681B6A1343FB607B681B68FA6869
:104440005A647B68002283F83C2000231846143706
:10445000BD465DF8047B7047000001400004014048
:10446000DFF834D00D480E490E4A002302E0D4583C
:10447000C4500433C4188C42F9D30B4A0B4C0023AC
:1044800001E013600432A242FBD3FCF76DFD00F0A3
:1044900017F8FCF7F5FB704700000520000000202E
:1044A00070000020EC4D0008700000208402002005
:1044B000FEE70000014B1868704700BF0C000020A9
:1044C00070B50D4E0D4CA41BA4100025A54209D1BA
:1044D0000B4E0C4C00F03EFCA41BA4100025A54282
:1044E00005D170BD56F8253098470135EEE756F8EE
:1044F000253098470135F2E7E44D0008E44D000807
:10450000E44D0008E84D000802440346934200D100
:10451000704703F8011BF9E70EB400B59CB04FF4E7
:1045200002711DABADF81410029006906FF00041BF
:104530000A48049107914FF6FF7153F8042BADF828
:1045400016100068019302A900F066F8029B002291
:104550001A701CB05DF804EB03B070470C0000202B
:104560002DE9F0478E689E4282460C469146984659
:1045700035D88A8912F4906F31D0256809696F1A8D
:104580006569022305EB450595FBF3F508F1010389
:104590003B449D4238BF1D46530531D5294600F0A6
:1045A00039FB064650B90C23CAF80030A38943F002
:1045B0004003A3814FF0FF30BDE8F0873A46216900
:1045C00000F0B4FAA38923F4906343F08003A3813D
:1045D000266165613E44ED1B2660A5604646464562
:1045E00028BF464632464946206800F0AAFAA3682A
:1045F0009B1BA36023681E4426600020BDE8F08753
:104600002A4600F065FB06460028E1D121695046A4
:1046100000F0B2FAC7E700002DE9F04F9DB08046E8
:1046200003938B891C060D4616460FD50B696BB993
:10463000402100F0EFFA2860286128B90C23C8F85F
:1046400000304FF0FF30C5E040236B610023099339
:1046500020238DF8293030238DF82A304FF0010BBC
:1046600037463C4614F8013B002B3CD1B7EB060A19
:104670000BD05346324629464046FFF771FF0130C2
:1046800000F0A380099B534409933B78002B00F072
:104690009C8000234FF0FF3204930793059206930A
:1046A0008DF853301A93052221785048FBF7B0FD5E
:1046B000671C049BD8B9D90644BF20228DF853202B
:1046C0001A0744BF2B228DF8532022782A2A16D0AD
:1046D000079A00210A20274601343B78303B092BFA
:1046E00051D9C9B111E0252BC0D02746B9E73F4ABF
:1046F000801A0BFA00F0184304903C46D3E7039A63
:10470000111D12680391002A01DB079204E0524256
:1047100043F00203079204933B782E2B0ED17B7853
:104720002A2B07F1010132D1039B1A1D1B6803924A
:10473000002BB8BF4FF0FF33023705932C4C39786C
:1047400003222046FBF764FD38B14023001B03FA27
:1047500000F0049B034304930137397825488DF812
:10476000281006227E1CFBF753FD002835D0224B73
:10477000FBB9039B073323F0070308330393099B1B
:104780004B4409936CE700FB02320121A3E70023AD
:10479000059318460A240F4601313A78303A092A1F
:1047A00003D9002BCAD00590C8E704FB00200123E1
:1047B000F1E703AB00932A46104B04A94046AFF340
:1047C0000080B0F1FF3F8146D9D1AB895B063FF550
:1047D00038AF09981DB0BDE8F08F03AB00932A46AF
:1047E000064B04A9404600F081F8EAE7A84D00080E
:1047F000AE4D0008B24D0008000000006145000801
:104800002DE9F04791461F468A680B69DDF8208044
:104810009342B8BF1346C9F8003091F843200646CA
:104820000C4612B10133C9F800302368990642BF23
:10483000D9F800300233C9F80030256815F00605B4
:1048400007D104F1190AE368D9F800209B1A9D42A8
:1048500029DB94F843302268003318BF0123920605
:104860002ED404F1430239463046C047013021D0EE
:104870002368E568D9F8002003F00603042B08BF7D
:10488000AD1AA36822690CBF25EAE575002593429D
:10489000C4BF9B1AED184FF000091A344D451BD1C7
:1048A0000020BDE8F0870123524639463046C04714
:1048B000013003D14FF0FF30BDE8F0870135C2E78A
:1048C000E1185A1C302081F84300224494F8451026
:1048D00082F843100233C4E70123224639463046AA
:1048E000C0470130E6D009F10109D7E72DE9F043CF
:1048F00017460A7E85B06E2A984606460C460C9BE3
:1049000001F1430E00F0BC801AD8632A2ED00AD8D9
:10491000002A00F0C880582A00F08A8004F142057D
:1049200084F842202AE0642A01D0692AF6D121685D
:104930001A6811F0800F23D0111D1960136827E049
:10494000732A00F0B48008D86F2A2AD0702AE5D1E3
:104950000A6842F020020A6003E0752A21D0782A12
:10496000DCD1782284F845206E4964E01A6801F1B0
:104970004205111D1960136884F842300123A3E039
:1049800011F0400F02F104011960D7D0B2F90030E4
:10499000002B03DA2D225B4284F8432062490A226D
:1049A00017E02068196810F0800F03D0081D186008
:1049B0000B6806E010F0400F01F104001860F7D01A
:1049C0000B8859496F2A14BF0A220822002084F854
:1049D00043006568A560002DC0F29C80206820F02F
:1049E00004002060002B3FD1002D40F095807546DB
:1049F000082A0BD12368DA0708D5236962689A422E
:104A0000DEBF302305F8013C05F1FF35AEEB0503B1
:104A10002361CDF800803B4603AA21463046FFF7CC
:104A2000EFFE013055D14FF0FF3005B0BDE8F08307
:104A300081F845203C492268186812F0800F00F187
:104A400004051D6001D0036802E05506FBD503880C
:104A5000D00744BF42F0200222601BB9226822F036
:104A6000200222601022B1E77546B3FBF2F002FB90
:104A70001033CB5C05F8013D03460028F5D1B7E7BC
:104A800008681A68496910F0800F04D0101D18607A
:104A90001368196007E010F0400F02F1040018607D
:104AA0001368F6D01980002323617546B1E71A68B0
:104AB000111D19601568626800212846FBF7A8FBE4
:104AC00008B1401B606063682361002384F84330B1
:104AD0009FE723692A4639463046C0470130A2D0B5
:104AE00023689B0707D5002504F11909E368039A99
:104AF0009B1A9D4205DBE068039B9842B8BF1846AD
:104B000093E701234A4639463046C04701308AD0F0
:104B10000135EBE7002BA7D10B7884F8423004F184
:104B2000420565E7CA4D0008B94D000810B5431E9F
:104B30000A44914200D110BD11F8014B03F8014F16
:104B4000F7E7884210B501EB020303D8421E9942F1
:104B50000CD110BD9842F9D28118D21AD34200D19B
:104B600010BD13F8014D01F8014DF7E711F8014BA5
:104B700002F8014FEBE7000038B50546002945D0A3
:104B800051F8043C0C1F002BB8BFE41800F0D6F815
:104B90001F4A1368104633B9636014602846BDE8A5
:104BA000384000F0CCB8A3420CD921686218934277
:104BB00004BF1A685B68636004BF52182260046017
:104BC000ECE713465A680AB1A242FAD91968581894
:104BD000A0420BD120680144581882421960DDD1EF
:104BE000106852685A6001441960D7E702D90C2353
:104BF0002B60D3E7206821188A4204BF11685268ED
:104C0000626004BF091821605C60C7E738BD00BF5F
:104C10009000002070B5CD1C25F0030508350C2D43
:104C200038BF0C25002D064601DBA94203D90C2311
:104C30003360002070BD00F081F8234A14682146DB
:104C400091B9224C23681BB9304600F067F8206008
:104C50002946304600F062F8431C26D10C2333600D
:104C6000304600F06CF8E4E70B685B1B1AD40B2BA2
:104C70000FD90B60CD50CC18304600F060F804F12D
:104C80000B00231D20F00700C31A1BD05A42E2502C
:104C900070BD8C420DBF63684B686360136018BFC2
:104CA0000C46E9E70C464968CAE7C41C24F0030433
:104CB000A04205D0211A304600F030F80130CDD0A6
:104CC0002560D9E770BD00BF90000020940000204F
:104CD000F8B5074614460E4621B91146BDE8F8401E
:104CE000FFF798BF22B9FFF747FF25462846F8BDD2
:104CF00000F026F884420FD921463846FFF78AFF94
:104D000005460028F2D031462246FFF70FFF314614
:104D10003846FFF731FFE9E73546E7E738B5064C97
:104D20000023054608462360FCF7F2F8431C02D135
:104D3000236803B12B6038BD8002002070477047A4
:104D400051F8040C0028A0F10400BCBF0B58C01897
:104D500070470000F8B500BFF8BC08BC9E4670471D
:0C4D6000F8B500BFF8BC08BC9E467047C8
:104D6C00256400004D656E6A656E202D204D656EC4
:104D7C006A656E00506F736974696F6E3A0000005B
:104D8C0020200000000000000000000001020304CD
:104D9C00060708090006101600061016232D302BE6
:104DAC002000686C4C006566674546470030313220
:104DBC003334353637383941424344454600303177
:104DCC0032333435363738396162636465660000D6
:084DDC0004B5FF7F0100000097
:044DE400F5010008CD
:044DE800D1010008ED
:104DEC000024F4001000000001000000100000205E
:104DFC0000000000000000000000000000000000A7
:104E0C000000000000000000000000000000000096
:104E1C000000000000000000000000000000000086
:104E2C000000000000000000000000000000000076
:104E3C000000000000000000000000000000000066
:104E4C000000000000000000000000000000000056
:04000005080044614A
:00000001FF
